:020000040800F2
:10000000380800209D4900083D3100083F310008B4
:1000100043310008473100084B3100080000000060
:100020000000000000000000000000004F31000848
:10003000513100080000000053310008553100081C
:10004000B7490008B7490008B7490008B749000890
:10005000B7490008B7490008B749000857480008E1
:10006000B7490008B7490008B7490008B749000870
:10007000B7490008B7490008B7490008B749000860
:10008000B7490008B7490008B7490008B749000850
:10009000B7490008B7490008B7490008B749000840
:1000A000B7490008B9470008B7490008B749000830
:1000B000B7490008DD270008F3270008B749000802
:1000C000B7490008B7490008B7490008B749000810
:1000D000B7490008B7490008B74900083139000896
:1000E000B7490008B7490008B7490008DFF80CD045
:1000F00008F044F8004800471D2600083808002092
:1001000036490143364A1160704770B5002100231B
:100110000F22C4784CB3324C246804F4E064C4F574
:10012000E0644FEA1421C1F1040322FA01F2447899
:1001300004FA03F1847804EA020444EA01014FEA74
:100140000111284C0678A155047804F01F054FF0E2
:10015000010404FA05F405784FEA65154FF0E0262E
:1001600006EB8505C5F8004109E0047804F01F0599
:100170000124AC401C4D0678761145F8264070BD30
:100180001A4A0A4002431A4B1A60704741B1194A91
:10019000126842EA00024FF0E023C3F8102D07E096
:1001A000144A126822EA00024FF0E023C3F8102D2F
:1001B0007047042808D14FF0E021096941F004019B
:1001C0004FF0E022116107E04FF0E021096921F0D2
:1001D00004014FF0E0221161704700000000FA05B1
:1001E0000CED00E000E400E080E100E080FFFF1F94
:1001F00008ED00E010ED00E00020474908604749A5
:10020000C1F804044649086001F10401086045484A
:1002100045490860704700213F498279DAB33F4A77
:10022000D2F8002403689A433C4BC3F800241A46D2
:10023000D2F8042403689A4301F104031A60027996
:1002400011440A68036842EA03020A60334AD2F89A
:100250000824036822EA0302304BC3F808241A4634
:10026000D2F80C24036822EA0302304B1A60427968
:10027000102A11D1294AD2F8082403681A43274BBF
:10028000C3F808241A46D2F80C2403681A43234BF7
:10029000C3F80C240EE007E01F49427911440A68B4
:1002A00003681A430A6005E0027911440A6803688A
:1002B0009A430A6070470021016001710C2141716D
:1002C0000021817170471A49096841EA0001134A07
:1002D000C2F81014704701460020134A12680A42FF
:1002E00001D0012000E0002070470F4908607047EE
:1002F000014600200022084B1B6803EA0102074B5D
:10030000D3F814340B4202D00AB1012000E00020DF
:100310007047054908607047000401400000014033
:1003200008040140FFFF0F00140401400C040140C9
:100330001004014010B50446CA48844208D1012186
:10034000042000F024FB0021042000F020FB46E004
:10035000C548844208D10121082000F018FB002183
:10036000082000F014FB3AE0C048844208D1012183
:10037000102000F00CFB0021102000F008FB2EE004
:10038000BB48844208D10121202000F000FB00215D
:10039000202000F0FCFA22E0B648844208D1012176
:1003A000402000F0F4FA0021402000F0F0FA16E0BE
:1003B000B148844208D10121802000F0E8FA0021F0
:1003C000802000F0E4FA0AE0AC48844207D1012121
:1003D000801500F0DCFA0021A01500F0D8FA10BD5D
:1003E00010B50121084600F0D2FA0021012000F0EA
:1003F000CEFA10BD2DE9F04102460025002600206E
:1004000000230024002791F803C00CF00F0591F899
:1004100003C01CF0100F03D091F802C04CEA050590
:10042000B1F800C01CF0FF0F31D0146800202BE0A1
:100430004FF0010C0CFA00F3B1F800C00CEA03060F
:100440009E4220D183004FF00F0C0CFA03F7BC43FF
:1004500005FA03FC4CEA040491F803C0BCF1280F30
:1004600006D14FF0010C0CFA00FCC2F814C00AE0EF
:1004700091F803C0BCF1480F05D14FF0010C0CFA04
:1004800000FCC2F810C0401C0828D1D31460B1F899
:1004900000C0BCF1FF0F34DD546800202EE000F1F5
:1004A000080C4FF0010808FA0CF3B1F800C00CEA90
:1004B00003069E4221D183004FF00F0C0CFA03F784
:1004C000BC4305FA03FC4CEA040491F803C0BCF1F8
:1004D000280F05D100F1080C08FA0CF8C2F81480B6
:1004E00091F803C0BCF1480F07D100F1080C4FF0A0
:1004F000010808FA0CF8C2F81080401C0828CED376
:100500005460BDE8F0814FF6FF71018002218170D7
:100510000421C17070470246002093680B4201D04D
:10052000012000E0002070470146886880B27047D3
:1005300002460020D3680B4201D0012000E00020D9
:1005400070470146C86880B27047016170474161D9
:1005500070470AB1016100E041617047C1607047B6
:100560004FF480320A4382618161826182698269CB
:10057000704702460020424B18684FF680731840BF
:1005800040EA021008433E4B186070473D49C8617D
:100590007047F0B50A46002300240021002500F032
:1005A0000046B6F1004F02D1354EF16901E0344EFC
:1005B0007168C0F3034583B200F44016B6F5401FDE
:1005C00008D121F070612E4E766826F070662C4FAF
:1005D0007E6012E000F48016B6F5801F06D1032677
:1005E00006FA05F4A14341F0706106E0460D3601BC
:1005F00003FA06F6B14341F0706122B1460D3601AF
:1006000003FA06F6314300F00046B6F1004F02D17E
:100610001B4EF16101E01A4E7160F0BD30B5002251
:100620008B071C0F0F2303FA04F2154B08338C10B1
:1006300053F824309343124C08348D1044F825307D
:1006400023468C1053F824308C07240F00FA04F44E
:1006500023430B4C08348D1044F8253030BD0A4933
:100660000860704700080140000C01400010014084
:100670000014014000180140001C0140002001400E
:100680000000014000002042DC002042DB480068FE
:1006900040F00100D949086008464068D849084040
:1006A000D649486008460068D6490840D3490860E2
:1006B0000846006820F4802008600846406820F45E
:1006C000FE0048604FF41F0088607047CB490968FE
:1006D00021F48031C94A11601146096821F4802152
:1006E0001160B0F5803F03D0B0F5802F0ED106E049
:1006F000C249096841F48031C04A116007E0BF492E
:10070000096841F4A021BD4A116000E000BF00BFAC
:10071000704710B501460022002300204A11012A2B
:1007200002D1B64C236806E0022A02D1B34C236AF8
:1007300001E0B24C636A01F01F02012494401C42A4
:1007400001D0012000E0002010BD70B5002400257C
:10075000002600BF3120FFF7DCFF0646641CB4F51D
:10076000A06F01D0002EF5D03120FFF7D2FF08B1E5
:10077000012500E00025284670BD014600209F4A63
:10078000106820F0F80040EAC100106070479E49F0
:100790000860704702460020984B586820F47C108F
:1007A00042EA01031843954B586070479649086622
:1007B000704701460020914A506820F0030008432A
:1007C000506070478D48406800F00C00704701464B
:1007D00000208A4A506820F0F000084350607047BB
:1007E00001460020854A506820F4E06008435060CC
:1007F000704701460020814A506820F4605040EA6A
:10080000C1005060704729B17C4A527A02437B4B49
:100810005A7206E0794A527AC343DBB21A40774BE8
:100820005A72704779490860704701460020734A40
:10083000506820F440400843506070470021744ADB
:1008400011706E4A82F82010012802D0042808D1C5
:1008500003E001216E4A117004E005216C4A117019
:1008600000E000BF00BF70476A49086070476349F5
:10087000096A0143614A116270476749086070471D
:1008800030B500210022002400235C4D6D6805F086
:100890000C0121B1042905D0082923D105E05F4DC1
:1008A000056022E05D4D05601FE0544D6D6805F464
:1008B0007012524D6D6805F48034022505EB9242AA
:1008C0001CB9574D554305600BE04C4D6D6815F450
:1008D000003F03D0524D5543056002E04F4D554354
:1008E000056002E04D4D056000BF00BF434D6D68DF
:1008F00005F0F00109094B4D6B5C0568DD40456072
:100900003E4D6D6805F4E061090A464D6B5C456833
:10091000DD408560394D6D6805F46051C90A414D6F
:100920006B5C4568DD40C560344D6D6805F4404141
:10093000890B3D4D6B5CC568B5FBF3F5056130BDBA
:1009400029B12E4A526902432C4B5A6104E02B4ACA
:1009500052698243294B5A61704729B1274A9269EB
:100960000243264B9A6104E0244A92698243234B56
:100970009A61704729B1214AD26902431F4BDA615B
:1009800004E01E4AD26982431C4BDA61704729B1E8
:100990001A4AD2680243194BDA6004E0174AD26857
:1009A0008243164BDA60704729B1144A1269024338
:1009B000124B1A6104E0114A126982430F4B1A610B
:1009C00070471A49086070470F49C86470470B495F
:1009D000C87170470948406A40F080700749486212
:1009E000704701460020054A92680A4201D0012062
:1009F00000E00020704701498872704700100240F3
:100A00000000FFF8FFFFF6FE00004242D80042421D
:100A100020100240800442423C04424200127A000C
:100A200000093D0000000020100000204004424268
:100A300010B50446FF48844208D10121C014FFF7D5
:100A4000A6FF0021E014FFF7A2FFC4E0B4F1804F3D
:100A500008D101210846FFF7A7FF00210120FFF779
:100A6000A3FFB8E0F448844208D101210220FFF737
:100A70009BFF00210220FFF797FFACE0EF48844284
:100A800008D101210420FFF78FFF00210420FFF788
:100A90008BFFA0E0EA48844208D101210820FFF73B
:100AA00083FF00210820FFF77FFF94E0E5488442A0
:100AB00008D101211020FFF777FF00211020FFF758
:100AC00073FF88E0E048844208D101212020FFF72D
:100AD0006BFF00212020FFF767FF7CE0DB488442AA
:100AE00008D101214014FFF752FF00216014FFF7E5
:100AF0004EFF70E0D648844209D10121C804FFF7B7
:100B000046FF00214FF40020FFF741FF63E0D1488A
:100B1000844209D101210805FFF739FF00214FF474
:100B20008010FFF734FF56E0CB48844209D1012101
:100B30004805FFF72CFF00214FF40010FFF727FFB7
:100B400049E0C648844208D101214020FFF72CFF2C
:100B500000214020FFF728FF3DE0C148844208D132
:100B600001218020FFF720FF00218020FFF71CFFDC
:100B700031E0BC48844208D101218015FFF714FF01
:100B80000021A015FFF710FF25E0B748844209D1E6
:100B900001210804FFF7FBFE00214FF48030FFF72E
:100BA000F6FE18E0B148844209D101214804FFF75C
:100BB000EEFE00214FF40030FFF7E9FE0BE0AC48F9
:100BC000844208D101218804FFF7E1FE00214FF49F
:100BD0008020FFF7DCFE10BD00220288954B984272
:100BE0000ED09A4B98420BD0B0F1804F08D0924B68
:100BF000984205D0914B984202D0914B984204D133
:100C00004FF68F731A404B881A438E4B984207D089
:100C10008D4B984204D04FF6FF431A40CB881A43BD
:100C200002808B8883850B880385824B98420BD08A
:100C3000864B984208D08C4B984205D08B4B9842FB
:100C400002D08B4B984201D10B7A03860123838219
:100C5000704770B5002400220023058C4FF6FE7605
:100C600035400584028C8388048B4FF68F752C40A9
:100C7000B51E2C400D882C43751E2A400D892A4331
:100C80004D882A436B4DA8420BD0704DA84208D026
:100C9000754DA84205D0754DA84202D0744DA842AA
:100CA00013D14FF6F7752A404D892A434FF6FB754D
:100CB0002A408D882A434FF6FF652B404FF6FF559B
:100CC0002B408D892B43CD892B4383800483CD8892
:100CD0008586028470BD70B5002400220023058C37
:100CE0004FF6EF7635400584028C8388048B48F6F6
:100CF000FF752C404FF6FF452C400D882D0644EA29
:100D000015444FF6DF752A400D892D0542EA15423C
:100D10004D882D0542EA1542464DA84202D04B4D62
:100D2000A8421BD14FF67F752A404D892D0542EA16
:100D300015424FF6BF752A408D882D0542EA1542AF
:100D40004FF6FF352B404FF2FF752B408D89AD04D8
:100D500043EA1543CD89AD0443EA154383800483F8
:100D6000CD880587028470BD70B500240022002361
:100D7000058C4FF6FF6635400584028C8388848B92
:100D80004FF68F752C404FF6FC752C400D882C4388
:100D90004FF6FF552A400D892D0642EA15424D882F
:100DA0002D0642EA1542234DA84202D0274DA84203
:100DB0001BD14FF2FF752A404D892D0642EA15429C
:100DC0004FF6FF352A408D882D0642EA15424EF631
:100DD000FF752B404DF6FF752B408D892D0543EA9D
:100DE0001543CD892D0543EA154383808483CD883F
:100DF0008587028470BD70B5002200230024058C15
:100E00004EF6FF7635400584038C8488828B48F645
:100E1000FF752A404FF6FF452A400D882D0642EA0D
:100E200015424DF6FF752B400D892D0743EA1543FA
:100E30004D881FE0002C01400004004000080040E5
:100E4000000C00400010004000140040003401403D
:100E5000004C014000500140005401400018004087
:100E6000001C0040002000400040014000440140C0
:100E7000004801402D0743EA1543F94DA84202D02E
:100E8000F84DA84206D14BF6FF752C408D89AD0573
:100E900044EA154484808283CD88A0F840500384BE
:100EA00070BD828B4FF2FF331A408283828B0B0618
:100EB00042EA134282837047F0B50C461546002281
:100EC00000210026078C4EF6FF7C07EA0C070784FA
:100ED000828B018C27073E0C40F6FF473A402F06D5
:100EE00042EA17421F0742EA1742DD4FB8420ED0CE
:100EF000DC4FB8420BD0B0F1804F08D0DA4FB84287
:100F000005D0DA4FB84202D0D94FB84206D14DF6DB
:100F1000FF77394046F48057394305E047F6FF57DD
:100F2000394044F48057394382830184F0BD828B79
:100F30004FF6F3731A408283828B0A438283704791
:100F4000F0B50C461546002200210026078C4FF60E
:100F5000FF6C07EA0C070784828B018C27063E0C86
:100F60004FF60C773A401F0545EA17473A43BC4F06
:100F7000B8420ED0BB4FB8420BD0B0F1804F08D072
:100F8000B94FB84205D0B94FB84202D0B84FB842B5
:100F900006D14FF6FF57394046F48077394305E0D4
:100FA0004FF2FF57394044F48077394382830184FC
:100FB000F0BD028B4FF2FF331A400283028B0B0607
:100FC00042EA134202837047F0B50C4615460022F0
:100FD00000210026078C4FF6EF7C07EA0C070784F8
:100FE000028B018C27053E0C40F6FF473A401F0755
:100FF00042EA17422F0642EA1742994FB8420ED0F2
:10100000984FB8420BD0B0F1804F08D0964FB842FD
:1010100005D0964FB84202D0954FB84206D14FF650
:10102000DF77394046F01007394305E04FF65F7728
:10103000394044F01007394302830184F0BD028B2C
:101040004FF6F3731A400283028B0A430283704700
:10105000F0B50C46154600220021068C4FF6FE77AF
:101060003E400684028B018C4FF60C7632401E0502
:1010700045EA164632437A4EB0420ED0794EB0421F
:101080000BD0B0F1804F08D0774EB04205D0774EEC
:10109000B04202D0764EB04206D14FF6FD763140D6
:1010A00044F00106314305E04FF6F576314044F057
:1010B0000106314302830184F0BD70B505460C463C
:1010C000674885420ED0674885420BD0B5F1804F06
:1010D00008D06548854205D06448854202D06448FE
:1010E000854200D100E000BF208850B92389A28842
:1010F00061882846FFF7ACFFE1882846FFF79FFF8D
:1011000025E0208804280AD12389A28861882846FE
:10111000FFF75AFFE1882846FFF74BFF17E02088CA
:1011200008280AD12389A28861882846FFF708FF8A
:10113000E1882846FFF7FBFE09E02389A288618841
:101140002846FFF7B9FEE1882846FFF7AAFE70BDE2
:101150002DE9F04105460C4600260127608808B9B4
:10116000022600E00026A088012801D1022700E025
:1011700001272088A0B92389A28861882846FFF723
:1011800067FFE1882846FFF75AFF23893A46314630
:101190002846FFF719FFE1882846FFF70AFF13E00A
:1011A0002389A28861882846FFF70EFFE188284638
:1011B000FFF7FFFE23893A4631462846FFF748FFEE
:1011C000E1882846FFF73BFFBDE8F0810A884B889D
:1011D0001A438B881A43CB881A430B891A434B89CD
:1011E0001A438B891A43A0F8442070474FF6FF71C9
:1011F000818000210180C1804180017270470021FF
:10120000018041808180C180018141818181C181D2
:101210007047002101804180012181800021C1802F
:10122000018170470021018041808180C18001815E
:1012300041818181704721B1028842F00102028020
:1012400004E002884FF6FE731A400280704789B1AD
:10125000B0F8442042F40042A0F8442010E000001E
:10126000002C014000340140000400400008004010
:10127000000C0040B0F84420C2F30E02A0F8442055
:10128000704710B51AB183890B43838104E08389C9
:10129000CC43A4B22340838110BD8182704741EAD0
:1012A0000203A0F84830704710B51AB183890B4388
:1012B000838104E08389CC43A4B22340838110BDA1
:1012C00001894FF6F8721140018170470A460021EA
:1012D00001894FF68F73194011430181704730B572
:1012E00004460D4629462046FFF7F0FF208940F0CE
:1012F0000700208130BD2DE9F04104460D46164619
:101300001F46602D06D13B46012231462046FFF79D
:101310005BFE05E03B46012231462046FFF798FE82
:1013200029462046FFF7D2FF208940F007002081A0
:10133000BDE8F08130B50C4600210189C9B21D0617
:1013400042EA154525432943018130BD2DE9F0418D
:1013500005460E4617469846002443463A4631460F
:101360002846FFF7E7FF2C894FF6F8710C4044F050
:1013700007044FF68F710C4044F070042C81BDE8D7
:10138000F081F0B504460D4616461F463B463246F0
:1013900029462046FFF7CEFF208940F48040208177
:1013A000F0BD0185828270470A46002101884FF610
:1013B0008F731940114301807047F0B50C461546F4
:1013C0001E460021002200230189028B038C4FF668
:1013D000F877394021434FF6FC473A4040F2011775
:1013E0003A434FF6DD773B40370545EA17473B4325
:1013F000018102830384F0BD0A460021018B4FF670
:101400008F7319401143018370470A460021018BF5
:1014100048F6FF731940130641EA134101837047F0
:101420000A460021818B4FF68F7319401143818347
:1014300070470A460021818B48F6FF731940130656
:1014400041EA13418183704721B1028842F0800252
:10145000028004E002884FF67F731A4002807047D2
:1014600021B1828842F00402828004E082884FF633
:10147000FB731A408280704721B1828842F00802D3
:10148000828004E082884FF6F7731A4082807047AA
:1014900021B1828842F00102828004E082884FF606
:1014A000FE731A40828070470A460021018B4FF676
:1014B000F77319401143018370470A460021018BDD
:1014C0004FF2FF731940130641EA1341018370473D
:1014D0000A460021818B4FF6F7731940114381832F
:1014E00070470A460021818B4FF2FF7319401306A3
:1014F00041EA1341818370470A460021018B4FF670
:10150000FB7319401143018370470A460021018B88
:101510004FF6FF331940130641EA13410183704728
:101520000A460021818B4FF6FB73194011438183DA
:1015300070470A460021818B4FF6FF33194013068E
:1015400041EA1341818370470A460021018B4FF61F
:101550007F7319401143018370470A460021018BB4
:10156000C1F30E01130641EA1341018370470A4695
:101570000021818B4FF67F7319401143818370479F
:101580000A460021818BC1F30E01130641EA134183
:10159000818370470A460021018C4FF6FD73194084
:1015A0001143018470470A460021018C4FF6F773FE
:1015B00019401143018470470A460021018C4FF6FF
:1015C000DF731940130541EA1341018470470A464D
:1015D0000021018C4FF67F731940130541EA134136
:1015E000018470470A460021018C4FF6FF531940D1
:1015F000130641EA1341018470470A460021018C19
:101600004FF2FF731940130641EA134101847047FA
:101610000A460021018C4DF6FF731940130741EA79
:1016200013410184704730B5002301248C40A3B2DC
:10163000048CDD43ADB22C400484048C02FA01F525
:10164000ADB22C43048430BD30B5002304248C405B
:10165000A3B2048CDD43ADB22C400484048C02FAA6
:1016600001F5ADB22C43048430BD70B503460020B3
:1016700000241846183001258D40ACB21D8CE6437D
:10168000B6B235401D8409B1082909D100EB6100CB
:10169000056825F0700505600568154305600CE0D8
:1016A0000D1FADB200EB6500056825F4E04505604F
:1016B0000568160645EA1645056070BD21B1028829
:1016C00042F00202028004E002884FF6FD731A40E5
:1016D0000280704721B1028842F00402028004E0D7
:1016E00002884FF6FB731A400280704721B182884E
:1016F00042F08002828004E082884FF67F731A40B5
:101700008280704702884FF6F7731A400280028881
:101710000A430280704782884FF68F731A40828096
:1017200082880A438280704702894FF6F8731A4014
:10173000028102890A430281704702894FF67F7352
:101740001A40028102890A430281704781847047EE
:101750008185704781867047018770478187704710
:10176000A0F84010704702884FF6FF431A400280ED
:1017700002880A43028070470146888E70470146FE
:10178000088F70470146888F70470146B1F84000C6
:1017900070470146888C70470146088D70470246A5
:1017A0000020138A0B4201D0012000E00020704786
:1017B000CA430282704730B502460020002300244D
:1017C000158A05EA0103958905EA010413B10CB1F4
:1017D000012000E0002030BDCA43028270470000B3
:1017E00010B50446FC48844209D101218803FFF763
:1017F000CEF800214FF48040FFF7C9F832E0F748F7
:10180000844209D101214804FFF7CEF800214FF4AA
:101810000030FFF7C9F825E0F148844209D10121E1
:101820008804FFF7C1F800214FF48020FFF7BCF8CF
:1018300018E0EC48844209D10121C804FFF7B4F84C
:1018400000214FF40020FFF7AFF80BE0E648844298
:1018500008D101210805FFF7A7F800214FF48010F7
:10186000FFF7A2F810BD2DE9F04786B005460E46F9
:101870000024A24600BFA1460027B08900B100BFE6
:101880002F462C8A4CF6FF700440F08804432C82CB
:10189000AC894EF6F3100440B08831890843718951
:1018A00008430443AC81AC8A4FF6FF400440B08942
:1018B0000443AC8201A8FEF7E3FFC748874202D188
:1018C000DDF810A001E0DDF80CA0A88910F4004FAD
:1018D00008D00AEBCA0000EB0A1031684900B0FBDF
:1018E000F1F807E00AEBCA0000EB0A103168890042
:1018F000B0FBF1F86420B8FBF0F00401200964218A
:1019000001FB1089A88910F4004F08D0322000EBA9
:10191000C900B0FBF1F000F00700044308E03220FA
:1019200000EB09106421B0FBF1F000F00F0004435C
:101930002C8106B0BDE8F0874FF4165101600021FC
:101940008180C18001810C2141810021818170470A
:1019500010B502460020108A4FF2FF0318400B8892
:101960004C8823438C882343CC882343184310821C
:1019700010BD0021018041808180C180704721B16C
:10198000828942F40052828104E082894DF6FF731D
:101990001A4082817047F0B50346002400260025D6
:1019A0000020A1F510676A3F00D100BF1846C1F3BF
:1019B000421401F01F06012707FA06F5012C01D198
:1019C0000C3004E0022C01D1103000E014301AB1C8
:1019D00007682F43076002E00768AF430760F0BD68
:1019E00010B51AB1838A0B43838204E0838ACC4307
:1019F000A4B22340838210BD028A4FF6F0731A40CE
:101A00000282028A0A430282704782894FF2FF7380
:101A10001A40828182890A438281704721B182897A
:101A200042F00202828104E082894FF6FD731A407F
:101A300082817047028A4FF6DF731A400282028A5F
:101A40000A430282704721B1028A42F48042028234
:101A500004E0028A4BF6FF731A4002827047C1F31A
:101A600008028280704701468888C0F308007047EA
:101A7000818941F0010181817047028BD2B20283DA
:101A8000028B42EA012202837047028B02F47F42FA
:101A90000283028B0A430283704721B1828A42F09B
:101AA0002002828204E0828A4FF6DF731A4082822B
:101AB000704721B1828A42F01002828204E0828A59
:101AC0004FF6EF731A408282704721B1828A42F04A
:101AD0000802828204E0828A4FF6F7731A408282FB
:101AE000704721B1828942F40042828103E08289F9
:101AF000C2F30E028281704721B1828A42F40062F1
:101B0000828204E0828A4FF2FF731A408282704719
:101B1000828A4FF6FB731A408282828A0A4382824B
:101B2000704721B1828A42F00202828204E0828AF6
:101B30004FF6FD731A408282704702460020B1F5CD
:101B4000007F00D100BF13880B4201D0012000E0CC
:101B50000020704701F40072B2F5007F00D100BF91
:101B6000CA430280704770B5024600240023002556
:101B70000020A1F510666A3E00D100BFC1F34215F6
:101B800001F01F03012606FA03F3012D02D1968905
:101B9000334006E0022D02D1168A334001E0968AD6
:101BA00033400C12012606FA04F41688344013B1AF
:101BB0000CB1012000E0002070BD10B50022002310
:101BC000A1F510646A3C00D100BF0A1201249440C0
:101BD000A3B2DC43048010BD003801400044004043
:101BE00000480040004C00400050004010B5044642
:101BF000F848844208D101214015FEF7C8FE0021B3
:101C00006015FEF7C4FE17E0F348844208D10121B5
:101C10000015FEF7BCFE00212015FEF7B8FE0BE014
:101C2000EE48844208D10121C803FEF7B0FE00212E
:101C30004FF40040FEF7ABFE10BD30B50246002069
:101C400000235068E64C20400D790C6844EA0524D6
:101C5000204350609068E34C2040D1E902542C436B
:101C60004D7944EA450420439060D06A20F4700026
:101C70000C7C641EE4B2234340EA0350D06230BDC2
:101C800000210160017141718160C1600121017415
:101C9000704721B1826842F00102826003E08268ED
:101CA00022F001028260704721B1826842F48072A2
:101CB000826003E0826822F480728260704710B50F
:101CC0000023CBB21AB144681C43446002E044686C
:101CD0009C43446010BD816841F0080181607047F9
:101CE000014600208A6812F0080F01D0012000E0B0
:101CF00000207047816841F004018160704701460F
:101D000000208A6812F0040F01D0012000E00020BA
:101D1000704721B1826842F4A002826003E08268C9
:101D200022F4A00282607047014600208A6812F403
:101D3000800F01D0012000E00020704710B50A4656
:101D400000210023416821F46041531E41EA4331E0
:101D5000416010BD21B1426842F40062426003E07C
:101D6000426822F4006242607047F0B504460D46B6
:101D700000200021092D11DDE068A5F10A0606EB1F
:101D80004607072606FA07F18843A5F10A0606EB7F
:101D9000460603FA06F10843E0600CE0206905EB13
:101DA0004507072606FA07F1884305EB450603FABF
:101DB00006F108432061072A0FDA606B561E06EB16
:101DC00086071F2606FA07F18843561E06EB86068D
:101DD00005FA06F10843606322E00D2A0FDA206B52
:101DE000D61F06EB86071F2606FA07F18843D61F83
:101DF00006EB860605FA06F10843206310E0E06A68
:101E0000A2F10D0606EB86071F2606FA07F18843A6
:101E1000A2F10D0606EB860605FA06F10843E0621C
:101E2000F0BD21B1826842F48012826003E08268D2
:101E300022F48012826070470146C86C80B27047FD
:101E400069480068704721B1426842F4806242608C
:101E500003E0426822F480624260704721B1426828
:101E600042F48052426003E0426822F480524260B1
:101E700070470A460021816821F4E04111438160E6
:101E8000704721B1826842F40042826003E08268B8
:101E900022F400428260704721B1826842F402124B
:101EA000826003E0826822F4021282607047014679
:101EB00000208A6812F4001F01D0012000E00020F9
:101EC0007047F0B504461546002000220026092977
:101ED00011DDE068A1F10A0707EB470C072707FAB5
:101EE0000CF29043A1F10A0707EB470703FA07F248
:101EF0001043E0600CE0206901EB410C072707FA72
:101F00000CF2904301EB410703FA07F21043206102
:101F1000A06BC0F30156EF1C06F1010CA7EB0C07F8
:101F200007EB870C1F2707FA0CF29043EF1C06F112
:101F3000010CA7EB0C0707EB870701FA07F2104328
:101F4000A063F0BD10B50A4600210023816B21F487
:101F50004011531E41EA0351816310BD10B50023A7
:101F600003460B441A6010BD02460023134601F1DC
:101F700028000344186880B270470A46002141686F
:101F80001A4B1940114341607047416282627047A9
:101F90000A460021416821F01F011143416070474A
:101FA00038B11349096841F40001124AC2F8081413
:101FB00006E00F49096821F400010E4AC2F808142E
:101FC00070470246002013680B4201D0012000E058
:101FD000002070470024014000280140003C0140DF
:101FE000FFFEF0FFFDF7F1FF4C240140FFFD3FFF36
:101FF0000824014000200140CA430260704770B5C8
:1020000002460020002300240B125568CEB205EAD8
:10201000060415681D4202D00CB1012000E000202A
:1020200070BD00220A12D3430360704700210020D4
:10203000674A126842F48032654B1A6000BF644AF6
:10204000126802F40030491C10B9B1F5A06FF6D146
:102050005F4A126812F4003F01D0012000E0002026
:10206000012842D15B4A126842F01002594B1A60B3
:102070001A46126822F003021A601A46126842F0E9
:1020800002021A60524A5268514B5A601A4652680C
:102090005A601A46526842F480625A601A46526880
:1020A00022F47C125A601A46526842F4E8125A60CE
:1020B0001A46126842F080721A6000BF444A1268E1
:1020C00012F0007FFAD0424A526822F00302404BDD
:1020D0005A601A46526842F002025A6000BF3C4AF7
:1020E000526802F00C02082AF9D1704710B5FFF7C8
:1020F0009DFF10BD10B53648006840F0010034491E
:10210000086008464068344908403149486008463C
:102110000068324908402E4908600846006820F4EB
:10212000802008600846406820F4FE0048604FF4B4
:102130001F008860FFF7DAFF4FF000602849086051
:1021400010BD10B5002100200022214B5B6803F078
:102150000C0121B1042906D0082928D107E0214B20
:10216000214C236027E01F4B1F4C236023E0184BBA
:102170005B6803F47010164B5B6803F48032022333
:1021800003EB904022B9194B4343174C23600DE0F9
:102190000F4B5B6813F4003F04D0144B4343124CC5
:1021A000236003E00F4B43430F4C236003E00D4BD0
:1021B0000D4C236000BF00BF054B5B68C3F30313E6
:1021C0000B4CE15C084B1B68CB40074C236010BDF7
:1021D00000100240002002400000FFF8FFFFF6FE62
:1021E00008ED00E000127A001400002000093D0014
:1021F00018000020014605E0002001E0421CD0B29A
:102200000A28FBDB0A00A1F10101F5D1704710B5E6
:10221000044603E04FF47A70FFF7ECFF2000A4F1CE
:102220000104F7D110BD7047072000E0401E0028D0
:10223000FCD1704710B54FF40070E34908604FF4CB
:102240008070E249C1F8100CFFF7EEFFE04800682B
:1022500008B9012000E0002010F4007F01D0002028
:1022600010BD4FF40070DB490860FFF7DDFFD74871
:10227000D0F8080C10F4007F01D00020F0E74FF4F4
:102280000070D4490860FFF7CFFF0120E8E710B5E0
:102290004FF48070CF490860FFF7C6FF4FF400701D
:1022A000CA49C1F8140CFFF7BFFF4FF48070C6494C
:1022B0000860FFF7B9FF4FF40070C449C1F8100C73
:1022C000FFF7B2FF10BD10B54FF48070C149086030
:1022D000FFF7AAFF4FF40070BC49C1F8140CFFF7D8
:1022E000A3FF4FF48070B8490860FFF79DFF4FF4DB
:1022F0008070B649C1F8140CFFF796FF10BD10B5F9
:102300004FF48070B3490860FFF78EFF4FF4007000
:10231000AE49C1F8100CFFF787FF4FF48070AA494F
:102320000860FFF781FF4FF48070A849C1F8140CD2
:10233000FFF77AFF10BD10B54FF48070A549086013
:10234000FFF772FF4FF40070A049C1F8100CFFF7BF
:102350006BFF4FF480709C490860FFF765FF9B4856
:10236000D0F8080C10F4007F06D04FF48070994923
:1023700008604FF0000010BD4FF480709549086070
:102380004FF00100F7E770B5044608251BE04FF455
:10239000807090490860FFF747FF14F0800F04D069
:1023A0004FF400708849086003E04FF400708949D9
:1023B00008606006040EFFF737FF4FF48070824913
:1023C0000860FFF731FF2800A5F10101CDB2DED191
:1023D0004FF480707F49086070BD70B508250024F7
:1023E000A8017949086015E06006040E4FF480707A
:1023F00078490860FFF718FF4FF480707349C1F8FF
:10240000100CFFF711FF7248006810F4007F01D034
:1024100044F001042800A5F10101CDB2E4D14FF44C
:1024200080706C490860204670BD08B50121082005
:10243000FEF793FA4FF44070ADF8000002208DF8DB
:10244000020014208DF80300694661480838FDF742
:10245000D1FF08BD2DE9F04105460E4617469846C6
:10246000FFF7E8FE10B90020BDE8F081002141EA45
:102470004501C8B2FFF787FFFFF75DFF18B9FFF707
:1024800006FF0020F0E73046FFF77DFFFFF753FF20
:1024900000240BE018F80400FFF775FFFFF74BFF6F
:1024A00018B9FFF7F4FE0020DEE7641CBC42F1DB44
:1024B000FFF7EDFE0120D7E72DE9F04104460D4678
:1024C00016461F463B46324629462046FFF7C2FFC6
:1024D00010B10020BDE8F0814FF0FF30FAE72DE9A0
:1024E000F04105460F4614461E46FFF7A3FE10B9FD
:1024F0000020BDE8F081002141EA4501C8B2FFF7A4
:1025000042FFFFF718FF18B9FFF7C1FE0020F0E700
:102510003846FFF738FFFFF70EFFFFF78BFE01216C
:1025200001EB4501C8B2FFF72EFFFFF704FF0CE0F7
:10253000FFF753FF3070012C02D1FFF7E0FE01E0FE
:10254000FFF7C1FE761C601EC4B2002CF0D1FFF76D
:102550009EFE0120CDE72DE9F04104460D461646CA
:102560001F463B46324629462046FFF7B8FF10B1CA
:102570000020BDE8F0814FF0FF30FAE770B5044667
:102580000D461646FFF756FE08B9002070BD002123
:1025900041EA4401C8B2FFF7F6FEFFF7CCFE18B9D6
:1025A000FFF775FE0020F1E72846FFF7ECFEFFF786
:1025B000C2FE3046FFF7E7FEFFF7BDFEFFF767FEFE
:1025C0000120E3E700207047100C014000000140AB
:1025D000080C0140140C014008B501211120FEF740
:1025E000BCF901210B48FDF7D4FF4FF4C040ADF812
:1025F000000003208DF8020010208DF803006946CA
:102600000548FDF7F7FE4FF4C0410348FDF79DFF75
:1026100008BD00000002300000100140FFF76AFD15
:1026200041F61F4141F2883002F098F802F0D2F8EA
:1026300001F002FF01F04DFF00F0CAF800F02CF8A5
:10264000FFF7CAFF02F04CF900F0DEF800F045F9A0
:10265000FFF7EBFE0A2000F019FE00F051FA00F03F
:10266000C1FD00F023FE4FF0E020006940F00100C2
:102670004FF0E02108610CE000F0B2FA0548007864
:1026800018B101F05FFD01F06AFD01F0F5FB01F00A
:10269000B4FBF1E76800002008B501210820FEF72F
:1026A0005CF94FF47040ADF8000010208DF8030085
:1026B00003208DF802006946FF48FDF79BFE4FF4AA
:1026C0007041FD48FDF741FF08BD08B501210846EE
:1026D000FEF750F901210420FEF73FF90C20ADF878
:1026E000000018208DF8030003208DF802006946D1
:1026F000F248FDF77FFE08BD30B587B00025002405
:1027000040F2E730ADF814000020ADF81000ADF84D
:102710001600ADF8120004A94FF08040FEF75CFAF5
:102720006020ADF800000120ADF80200ADF80650C1
:102730000020ADF8080069464FF08040FEF714FB1A
:102740000821C806FEF7C4FE0120ADF80200ADF86E
:1027500006400020ADF8080069464FF08040FEF7C3
:102760004AFB0821C806FEF7BCFE01218807FEF7D8
:102770006BFE01218807FEF75EFD07B030BD2DE935
:10278000FF4104460D4627462E466020ADF8000066
:102790000120ADF80200ADF806700020ADF8080089
:1027A00069464FF08040FEF7DFFA0821C806FEF7C1
:1027B0008FFE0120ADF80200ADF806606946800783
:1027C000FEF719FB0821C806FEF78BFEBDE8FF8166
:1027D00010B5FFF77AFFFFF78FFF10BDB8490888E3
:1027E0004FF08041B1F8101421F00101B44A11807A
:1027F0007047B44908884FF08041B1F8101821F0B3
:102800000101B04A1180704700B589B00121022052
:10281000FEF7B0F801210420FEF79FF801A8FDF7AC
:1028200072FEC020ADF8040004208DF807000320DC
:102830008DF8060001A9A148FDF7DCFD4FF4A0606A
:10284000FDF75EFC1D208DF8080001208DF80900C1
:1028500003208DF80A0001208DF80B0002A8FDF777
:1028600054FC97481038FEF7E3F806A8FEF7BEFCC4
:102870000020ADF818004FF6FF70ADF81C000020E6
:10288000ADF81E00ADF81A0006A98D481038FEF705
:10289000A3F90A231A46032189481038FEF78DFD53
:1028A00003A8FEF7B6FC0620ADF8140003A984487F
:1028B0001038FEF702FC012181481038FEF778FF3E
:1028C000012211467E481038FEF7DBFC01217C48CE
:1028D0001038FEF7B0FC09B000BD00B589B0012189
:1028E0000420FEF747F801210820FEF736F801A87A
:1028F000FDF709FEC020ADF8040004208DF80700A4
:1029000003208DF8060001A96B48FDF773FD4FF415
:10291000A060FDF7F5FB1E208DF8080001208DF862
:10292000090003208DF80A0001208DF80B0002A891
:10293000FDF7EBFB63481038FEF77AF806A8FEF7C0
:1029400055FC0020ADF818004FF6FF70ADF81C00E4
:102950000020ADF81E00ADF81A0006A9594810383D
:10296000FEF73AF90A231A46032156481038FEF7B3
:1029700024FD03A8FEF74DFC0620ADF8140003A9C2
:1029800050481038FEF799FB01214E481038FEF7E9
:102990000FFF012211464B481038FEF772FC01214F
:1029A00048481038FEF747FC09B000BD00B585B0B7
:1029B00001210420FDF7D1FF01210220FDF7DAFFFC
:1029C0008020ADF8100004208DF8130003208DF84E
:1029D000120004A93948FDF70DFD4FF4A060FDF782
:1029E0008FFB1D208DF8000001208DF801000320D1
:1029F0008DF8020001208DF803006846FDF785FB85
:102A00002F481038FEF714F84FF6FF70ADF80800A5
:102A10000020ADF80400ADF80A00ADF8060001A9E9
:102A200027481038FEF7D8F800231A4660212448BA
:102A30001038FEF760FC002121481038FEF786FEB2
:102A400001211F481038FEF7F6FB05B000BD00B5A8
:102A500085B001210820FDF780FF01210420FDF74A
:102A600089FF8020ADF8100004208DF813000320AA
:102A70008DF8120004A91048FDF7BCFC4FF4A060CB
:102A8000FDF73EFB1E208DF8000001208DF80100AF
:102A900003208DF8020001208DF803006846FDF741
:102AA00034FB08481038FDF7C3FF4FF6FF70ADF850
:102AB0000800002008E00000000C01400008014070
:102AC0001004004010080040ADF80400ADF80A0002
:102AD000ADF8060001A90948FEF77EF800231A4662
:102AE00060210648FEF707FC00210448FEF72EFE91
:102AF00001210248FEF79FFB05B000BD0008004021
:102B000070B5002402F0B6FB0446C4BB7DA001F002
:102B100010FE782002F011F818B983A001F009FE28
:102B200002E089A001F005FE782002F0F3F918B95F
:102B300090A001F0FEFD02E097A001F0FAFD6420F4
:102B400002F0C9FA18B9A0A001F0F3FD02E0A8A0B4
:102B500001F0EFFD03F096FE18B9AEA001F0E9FD1B
:102B600002E0B9A001F0E5FDC64804F07CFD054691
:102B700003F092FE20B9C4A001F0DBFD03E027E0E2
:102B8000CBA001F0D6FD40F2731004F0DCFA18B9C6
:102B9000D3A001F0CEFD02E0DAA001F0CAFD64206E
:102BA00004F04AF818B9E3A001F0C3FD02E0EAA07E
:102BB00001F0BFFD04F06BFD012003F0A9FB18B983
:102BC000F0A001F0B6FD0AE0F7A001F0B2FD06E0CA
:102BD0004FF40051FF48FDF7BAFC00BFFEE770BD9F
:102BE0002DE9F04F89B0FC4BFC4ACDE90023FC4BAA
:102BF000FC4AFD49FD4804F005FCF848008810F443
:102C0000807F7DD0F749086805F09FF804464FF0B3
:102C10009D4104F0D5FEF6490860F249486805F088
:102C200094F804464FF09D4104F0CAFEF149086053
:102C3000EC49886805F089F804464FF09D4104F09E
:102C4000BFFEED490860E749C86805F07EF8044614
:102C50004FF09D4104F0B4FEE8490860E448016883
:102C60004FF0804004F076FE0690E3480168069835
:102C700004F070FE8246DF4801684FF0404004F0E7
:102C800069FE0690DD480168069804F063FE8346FD
:102C9000514604F007FE079005F0A3F8804606F0C1
:102CA000E3F906464FF06632D54B04F06EFF04465A
:102CB00005F0C2F8D3490860CF4801684FF0804062
:102CC00004F048FE0390CC480168039804F042FEEB
:102CD0008246C84801684FF0404004F03BFE039034
:102CE000C4480168039804F035FE8346514604F059
:102CF0002BFE81464FF07E5104F0D4FD804683E1E7
:102D00000AE200006D707520696E697469616C6912
:102D10007A6174696F6E20636F6D706C6574652E77
:102D20002E2E2E2E2E0A20006D70755F7365745F37
:102D300073656E736F7220636F6D706C6574652060
:102D40002E2E2E2E2E2E0A006D70755F7365745F09
:102D500073656E736F7220636F6D65206163726F50
:102D60007373206572726F72202E2E2E2E2E2E0AF5
:102D7000000000006D70755F636F6E666967757245
:102D8000655F6669666F20636F6D706C6574652042
:102D90002E2E2E2E2E2E0A006D70755F636F6E66BE
:102DA00069677572655F6669666F20636F6D652020
:102DB0006163726F7373206572726F72202E2E2E94
:102DC0002E2E2E0A000000006D70755F7365745F13
:102DD00073616D706C655F7261746520636F6D7097
:102DE0006C657465202E2E2E2E2E2E0A00000000FB
:102DF0006D70755F7365745F73616D706C655F7224
:102E0000617465206572726F72202E2E2E2E2E2E0A
:102E10000A000000646D705F6C6F61645F6D6F74B9
:102E2000696F6E5F6472697665725F6669726D77ED
:102E300061726520636F6D706C657465202E2E2E37
:102E40002E2E2E0A00000000646D705F6C6F6164AE
:102E50005F6D6F74696F6E5F6472697665725F66CD
:102E600069726D7761726520636F6D652061637251
:102E70006F7373206572726F72202E2E2E2E2E2E7F
:102E80000A00000028000020646D705F7365745FA5
:102E90006F7269656E746174696F6E20636F6D70B7
:102EA0006C657465202E2E2E2E2E2E0A000000003A
:102EB000646D705F7365745F6F7269656E74617461
:102EC000696F6E20636F6D65206163726F7373202D
:102ED0006572726F72202E2E2E2E2E2E0A0000008A
:102EE000646D705F656E61626C655F666561747567
:102EF000726520636F6D706C657465202E2E2E2EAA
:102F00002E2E0A00646D705F656E61626C655F668F
:102F100065617475726520636F6D65206163726FA2
:102F20007373206572726F72202E2E2E2E2E2E0A33
:102F300000000000646D705F7365745F6669666FA2
:102F40005F7261746520636F6D706C657465202EAF
:102F50002E2E2E2E2E0A0000646D705F7365745F36
:102F60006669666F5F7261746520636F6D6520616D
:102F700063726F7373206572726F72202E2E2E2E05
:102F80002E2E0A006D70755F7365745F646D705FDF
:102F9000737461746520636F6D706C657465202E49
:102FA0002E2E2E2E2E0A00006D70755F7365745FD5
:102FB000646D705F737461746520636F6D6520610B
:102FC00063726F7373206572726F72202E2E2E2EB5
:102FD0002E2E0A0000100140620000206000002038
:102FE00050000020140200205A000020540000204D
:102FF00034000020380000203C0000204000002069
:1030000066A64C404400002004F0EBFECDE904012C
:10301000434801684FF0804004F09CFC83464148DF
:103020000168584604F096FC81463F4801684FF01D
:10303000804004F08FFC83463C480168584604F009
:1030400089FC8246494604F02DFC804604F0C9FE06
:103050000446DDE9042306F059FA4FF06632344B9A
:10306000CDE9060104F091FD064604F0E5FE314984
:1030700008602E480168006804F06CFC03902A4840
:103080000168006804F066FC029026480168006848
:1030900004F060FC834622480168006804F05AFC92
:1030A0005946019004F0FEFB8246029904F04CFC64
:1030B0008146039904F048FC804604F092FE0446E1
:1030C0000D461A4801681648006804F043FC824621
:1030D000154801681348006804F03CFC83465146DB
:1030E00004F0E0FB81464FF0804104F033FC804661
:1030F00004F077FE064622462B4606F007FA4FF00C
:1031000066320B4BCDE9040104F03FFDCDE9060129
:1031100004F092FE0849086009B0BDE8F08F000095
:1031200034000020380000203C0000204000002037
:1031300066A64C40480000204C000020704700BFAD
:10314000FEE700BFFEE700BFFEE700BFFEE77047F7
:103150007047704710B51D480078401C1B49087027
:103160001B480078401C1A4908701A480078401C17
:103170001849087000F0F6FA17480078401C164904
:10318000087016480078401C1449087014480078EC
:10319000401C1349087000F00FF900F023FA0C48A6
:1031A0000078022806DB01F086FB00F00BFC002013
:1031B0000749087007480078082806DB00F0FFFA86
:1031C0000020044908700449087010BD5101002016
:1031D000560100205201002053010020540100201C
:1031E0005501002025490968C822B1FBF2F0B0F171
:1031F000807F01D301211CE020F07F41491E4FF068
:10320000E022516100BF5117002905DA0F210901A1
:103210001B4A0B23D15404E00F210901194A53170B
:10322000D15400BF00214FF0E022916107211161CC
:10323000002109B100BFFEE74FF0E020006920F057
:1032400001004FF0E021086170470F4908604FF01E
:10325000E021096941F001014FF0E022116100BF56
:10326000094909680029FBD170470748006820B167
:1032700005480068401E044908607047140000209B
:1032800018ED00E000E400E064000020002107E009
:1032900042F6E06100BF0A00A1F1010399B2FAD140
:1032A0000200A0F1010398B2F2D170470020FA4960
:1032B0000880FA490880FA490860FA490860FA4922
:1032C0000860FA490860FA490860FA490860FA4952
:1032D0000860FA490860FA490860FA490860FA4942
:1032E0000860FA490860FA490860FA490860FA4932
:1032F0000860FA490860FA490870FA490870FA4902
:103300000870FA49086070472DE9F041F8480068F4
:1033100004F067FD0446F748D0E9006332462046D2
:1033200004F076FD07D0F348D0E90021104604F000
:1033300083FDEF490860F048006804F052FD044640
:10334000EC48D0E902633246204604F061FD07D024
:10335000E849D1E90221104604F06EFDE649086013
:10336000E648006804F03DFD0446E248D0E9046305
:103370003246204604F04CFD07D0DE48D0E9042157
:10338000104604F059FDDD490860DD48006804F08E
:1033900028FD0446D748D0E906633246204604F0AB
:1033A00037FD07D0D348D0E90621104604F044FD8C
:1033B000D3490860BDE8F0812DE9F041D1480068AB
:1033C000012810D10020CA490860CF48006804F0E5
:1033D000CAFC06460022CD4B04F0D7FB044604F09D
:1033E0002BFDC3490860C7480068022812D100209D
:1033F000C1490860C6490968A1F1400004F0B3FC66
:1034000004460022C34B04F0C0FB064604F014FD42
:10341000B9490860C049B1F9040004F096FCBF49FD
:103420000860BF49B1F9040004F08FFCBD49086091
:103430000021BD48006804F01BFD0BD0BB49BA4811
:10344000006804F015FD05D3B949B748006804F0D9
:1034500019FD05D24FF40051B648FDF778F804E0A5
:103460004FF40051B348FDF770F80021B2480068EE
:1034700004F06AFA8F490860A949B1F9000004F024
:1034800064FC06469C480168304604F063FA044632
:10349000974801688748006804F05CFA05462146B1
:1034A00004F000FA86490860BDE8F0812DE9F0419A
:1034B00004460D46002C0CDA4FF480419F48FDF77E
:1034C00044F84FF400419D48FDF741F8604204B2D2
:1034D0000AE04FF400419948FDF737F84FF4804176
:1034E0009648FDF734F800BF002D0CDA4FF4005178
:1034F0009248FDF72AF84FF480519048FDF727F8DD
:10350000684205B20AE04FF480518C48FDF71DF87F
:103510004FF400518948FDF71AF800BFAFB2A6B2C8
:1035200031464FF08040FEF719F939464FF08040A0
:10353000FEF716F982497C48006804F0A3FC21D309
:1035400080497948006804F093FC02D24FF00108EA
:1035500001E04FF0000800215F48006804F088FC9B
:1035600001D1012000E0002008EA000800215B48AA
:10357000006804F07DFC01D1012000E0002018EA81
:10358000000F0DD000214FF08040FEF7E7F800213A
:103590004FF08040FEF7E4F801206B49086002E03C
:1035A00000206949086069494248006804F06AFCE3
:1035B00005D367493F48006804F05AFC0DD200214A
:1035C0004FF08040FEF7CAF800214FF08040FEF730
:1035D000C7F801205C49086002E000205A490860F1
:1035E000BDE8F08170B55B4801683548006804F0BB
:1035F00059F9044630480168204604F053F932492D
:103600000860544801682E48006804F04BF90446ED
:1036100029480168204604F097F92A4908602A4899
:10362000006804F0B1FB00B240F6B831884202DD18
:103630004948254908602448006804F0A5FB00B209
:103640004649884202DA46481F4908601D4800681A
:1036500004F09AFB00B240F6B831884202DD3E48E1
:10366000184908601748006804F08EFB00B23B4917
:10367000884202DA3A48134908601248006804F0A8
:1036800083FB04B21048006804F07EFB05B22146BB
:103690002846FFF70BFF70BD860100208401002043
:1036A00094010020900100209C010020980100203E
:1036B000A001002070010020A80100205801002076
:1036C000640100206C01002068010020A40100209A
:1036D000D4010020D0010020B0010020AC01002066
:1036E000510100205201002053010020E40000207D
:1036F000C800002008970008CC000020D00000205F
:10370000D4000020C8010020B80100200080FB3F49
:10371000BC0100200000C43F5A000020F800002037
:1037200054000020FC000020440000200000A0C144
:103730000000A0410010014048000020000C0140A2
:1037400000002041000020C1E000002000004842AD
:10375000000048C26001002000803B4548F4FFFFA4
:1037600000803BC570B5FB48FEF713F80446FA48E5
:10377000FEF70FF80546F9480460F9480560002196
:10378000F448FDF7E3FF0021F348FDF7DFFF20B227
:10379000F4490880684200B2F3490880F3480068A1
:1037A000F049B1F900100844F0490860F048006899
:1037B000ED49B1F900100844ED49086070BD2DE9EC
:1037C000F05FEA490968EA4A1268881804F0BDFA0D
:1037D000E84908600020E6490860E4490860E648D6
:1037E000006804F0FEFA06464FF06632E34B04F040
:1037F000CCF9044604F020FBDF490860DD4800688E
:1038000004F0EFFA04464FF03332DD4B04F0BDF91B
:1038100006460F46D848006804F0E3FA8046324670
:103820003B4604F00DF9824604F006FBD2490860DD
:1038300008460168D348006804F034F8D1490860AC
:10384000D1480168CF48006804F02CF8CD490860E1
:10385000CE480168CB48006804F024F8C9490860E4
:10386000CB480068012801D100200860C5480068E5
:1038700004F08AFA40F6B831884202DDC548C149F1
:103880000860C048006804F07FFAC349884202DA41
:10389000C248BC490860C2480068032812D1002011
:1038A000C0490860C0490968A1F1800004F05BFAD2
:1038B00006460022BD4B04F068F9044604F0BCFA49
:1038C000B8490860B6480068042812D10020B849F9
:1038D0000860B8490968A1F1C00004F044FA06463E
:1038E0000022B54B04F051F9044604F0A5FAB049A2
:1038F00008600021A348006804F026F80646AC489A
:103900000168304604F026F8044600219A48006811
:1039100004F01AF80646A3480168304604F01AF885
:103920000546214603F0BEFFA4490860BDE8F09FAC
:1039300010B500240821A248FEF7FFF830B1082195
:103940009F48FEF707F99E48FEF78DF820219C4816
:10395000FEF7F3F8A8B340F225519948FEF72DF988
:1039600098480088C4B2242C05D1012096490870DB
:1039700000209649086094480078012803D19448B3
:103980009249096844549048007801280AD1232CB0
:1039900008D19049087000208B4908708B48006856
:1039A0008D49086089480068401C884908600846BD
:1039B0000068502805DB00200860834908708549AD
:1039C000087010BD2DE9F0418448006810BB8448A0
:1039D000FDF7DFFE00EB800000EB00104FEA40082F
:1039E000404604F0C0F9044600227E4B04F03EF944
:1039F000064604F021FA7C4908600846006804F095
:103A0000F0F904460022794B04F002FA03D8784812
:103A10005E4908601BE077497348006804F032FA99
:103A200001D8012400E000244FF082416E48006874
:103A300004F01EFA01D8012000E00020044203D067
:103A40006D485249086002E0002050490860BDE816
:103A5000F0812DE9FC5F69480068012878D1684849
:103A6000D0F800B06748006801906748B0F902706C
:103A70006648B0F900805C480668384604F065F98D
:103A800005464FF08D4103F09BFF0446604903F06B
:103A900061FF60490860404604F057F905465E49F9
:103AA00003F052FF04465D4903F08AFF5C49086059
:103AB000584604F096F981465A4A5B4B04F0D6F812
:103AC000044604F0B9F98346019804F08AF90446E3
:103AD000544A554B04F0CAF8814604F0ADF9019000
:103AE0005021524803F0AFFE504851A109680160CF
:103AF0000A21504803F0A7FE4F48002101604160B1
:103B000001810A214D4803F09EFE4D4800210160CD
:103B1000416001810A214B4803F095FE4A4800218B
:103B20000160416001814949584604F0A1F910D86B
:103B30004749584604F0A6F90BD8584604F051F905
:103B4000044602460B4643A13A4804F0A7FD87E02D
:103B500051E183E00004004000080040D80000204C
:103B6000DC0000208401002086010020900100205C
:103B700094010020980100209C0100206666E63F29
:103B80003333D33FA0010020A4010020E400002033
:103B9000E000002000803B4548F4FFFF00803BC56B
:103BA000C8010020D0000020C00100200000DE3F3E
:103BB000D4000020C40100200000C43F60010020A8
:103BC0000048004004480040480100204401002013
:103BD00024020020680000204C010020EC0000209E
:103BE000002C014000006940E80000200000104067
:103BF000000096C30000A0400000FA43F00000203F
:103C0000680100206C0100205A00002054000020B0
:103C1000CDCC1C41F80000209A190043000003435A
:103C2000FC00002048E17A14AE470F40C402002097
:103C3000244C5600EC030020F60300200004002072
:103C40000A040020140400201E04002000007A440E
:103C500000007AC425332E3266000000BDE8FC9FC8
:103C6000FF49019804F004F910D8FE49019804F0C6
:103C700009F90BD8019804F0B4F8044602460B4643
:103C8000AFF23001F84804F009FD00E0E6E7F7493B
:103C9000F748006804F0F6F812D2F649F4480068D4
:103CA00004F0E6F80CD2F248006804F09AF80446F2
:103CB00002460B46AFF26401EF4804F0EFFC00E06F
:103CC000CCE7EE49EE48006804F0DCF812D2ED498A
:103CD000EB48006804F0CCF80CD2E948006804F026
:103CE00080F8044602460B46AFF29801E64804F01D
:103CF000D5FC00E0B2E70021304604F0C3F810D84C
:103D0000E249304604F0B4F80BD2304604F069F8CA
:103D1000044602460B46AFF2C401DD4804F0BEFC87
:103D200000E09BE7002000F01DFE0090009804F0EA
:103D300015F88146D74903F00DFE05464FF08B413B
:103D400003F03EFE0446D44903F0FEFDD34908606B
:103D50000021D248006804F095F812D8C549CF4830
:103D6000006804F085F80CD2CC48006804F039F8FB
:103D7000044602460B46AFF22411C94804F08EFCFB
:103D800000E06BE7C749C84803F069FDC7A1C64812
:103D900003F065FDB449C44803F061FDC4A1C24805
:103DA00003F05DFDB449C04803F059FDC1A1BE4810
:103DB00003F055FDB449BC4803F051FDBEA1BA481B
:103DC00003F04DFDB249B84803F049FDBCA1B64827
:103DD00003F045FDB249B44803F041FDB9A1B24832
:103DE00003F03DFD5021B84803F02DFD5022AE49AF
:103DF000B54803F00FFD00BF30E710B5B3480068C9
:103E0000401EB2490860B2480068012807D1084640
:103E1000006820B9FFF71DFEAB4800F07EFCAB4800
:103E2000006818B941F28830A849086010BD30B563
:103E300003460C4600211AE0585C2578A84200D0C1
:103E400014E0002206E0521CA05C8D185D5DA842C3
:103E500000D005E0A05C18B18818185C0028F2D1E9
:103E600000BFA05C08B9084630BD00BF491C585CC3
:103E70000028E1D1401EF7E710B5964800680728F2
:103E800046D2DFE800F0040E26181F303B00002069
:103E9000914908609149086091490860914908601A
:103EA0003AE000208E4908608F488B490860012065
:103EB0008C49086030E08D488949086001208949B3
:103EC000086029E08A488649086001208549086021
:103ED00022E000208249086086487F49086001206E
:103EE0008049086018E084480068404203F02DFFD4
:103EF0007B49086001207B4908600DE07E4800682E
:103F000003F023FF7649086001207649086003E04A
:103F100000207149086000BF00BF10BD70B532219C
:103F2000764803F090FC754875A10968016000218E
:103F30007448006803F0A6FF12D8734971480068FE
:103F400003F096FF0CD86F48006803F04AFF044660
:103F500002460B46AFF204316C4804F09FFB03E0CD
:103F60006BA000F0DAFB70BD00216D48006803F023
:103F700089FF12D864496A48006803F079FF0CD8B9
:103F80006748006803F02DFF044602460B46AFF277
:103F90003C31644804F082FB03E05DA000F0BDFB0F
:103FA000E1E700216048006803F06CFF12D8564931
:103FB0005D48006803F05CFF0CD85B48006803F0C4
:103FC00010FF044602460B46AFF27831574804F022
:103FD00065FB03E04EA000F0A0FBC4E700215448BD
:103FE000006803F04FFF12D847495148006803F0BA
:103FF0003FFF0CD84E48006803F0F3FE044602462B
:104000000B46AFF2B0314B4804F048FB03E040A050
:1040100000F083FBA7E73D49384803F020FC46A1A8
:10402000364803F01CFC3F49344803F018FC43A118
:10403000324803F014FC3D49304803F010FC40A125
:104040002E4803F00CFC3B492C4803F008FC1DA152
:104050002A4803F004FC294800F05FFB00BF82E718
:1040600000007A4400007AC4F60300200000A0C1DA
:10407000F80000200000A0410004002000803BC5A3
:10408000FC00002000803B450A04002000401C4644
:1040900014040020CDCC5441CDCC4C3EC4000020B3
:1040A0001E040020EC030020C40200202C52560005
:1040B0002C4143002C4759002C4353420000000080
:1040C0002C5654002300000014030020F4000020AC
:1040D000F00000206C000020A4010020E40000207B
:1040E000A8010020EC00002000004844000096C316
:1040F00000009643000048C4000100209100002009
:1041000024415000C80000200000C842C403002021
:10411000244765745049444572726F722300000051
:10412000CC000020CE030020D0000020D8030020C7
:10413000D4000020E20300202C4144002C56500003
:104140002C56490010B5A6480268521CA549A6483D
:1041500003F060FB5021A34803F075FB10BDF0B5E0
:1041600089B0A14840783038052827D2DFE800F030
:104170001F030A11180001209C4908609C4800F0A8
:10418000CCFA1FE0022099490860994800F0C5FA6E
:1041900018E0032095490860954800F0BEFA11E048
:1041A000042092490860924800F0B7FA0AE0002023
:1041B0008E4908608E4800F0B0FA03E000208B4979
:1041C000086000BF00BF884803F057FB15280BD2DA
:1041D0000020884908705021834803F034FB86A0F2
:1041E00000F09BFA09B0F0BD7F48C078312805D1B6
:1041F00005207E4908607E4800F08FFA7A48C07832
:10420000322805D1062079490860794800F085FAFE
:1042100075484079312802D1FFF780FE08E07248E6
:104220004079322804D1FFF76FF878A000F075FAD2
:104230006D48C079312806D101207649086073A005
:1042400000F06BFA09E06848C079322805D10020F7
:10425000704908606DA000F060FA6348407A312828
:1042600057D1142104A803F0EEFA00200290039025
:104270000090019068A15C48FFF7D9FD0746781CC3
:1042800000D1AFE765480068C21B5748C11904A8B0
:1042900003F0C0FA62A104A8FFF7C9FD0646701C2E
:1042A00000D19FE7B21E0DF1120102A803F0B2FA8D
:1042B00002A805F0EBF9044603F0BEFD5949086079
:1042C000142104A803F0BFFAB819544B1B681A1A3A
:1042D000454838443044411C04A803F09BFA50A1DF
:1042E00004A8FFF7A4FD0646701C00D17AE7B21EB1
:1042F0000DF11201684603F08DFA684605F0C6F923
:10430000044603F099FD4849086040A000F005FA12
:1043100000BF3548C07A312858D1142104A803F0D1
:1043200092FA002002900390009001903FA12E4845
:10433000FFF77DFD0746781C00D153E7374800683A
:10434000C21B2948C11904A803F064FA34A104A8C7
:10435000FFF76DFD0646701C00D143E7B21E0DF15C
:10436000120102A803F056FA02A805F08FF90446DC
:1043700003F062FD2E490860142104A803F063FADB
:10438000B819264B1B681A1A174838443044411C88
:1043900004A803F03FFAAFF2D42104A8FFF747FDC9
:1043A0000646701C00D11DE7B21E0DF112016846D1
:1043B00003F030FA684605F069F9044603F03CFD65
:1043C0001C49086011A000F0A8F900BF00200949AD
:1043D00008705021044803F036FA00BF02E70000DD
:1043E0004401002024020020740200206C00002000
:1043F00070000020680000202452656365697665BE
:104400005061636B4572726F72230000244F4B231F
:1044100000000000F0000020415000004C0100208E
:104420002C000000C8000020CC00002056500000E6
:10443000D0000020D400002000B585B0012144F256
:104440000400FCF78AFA4FF40070ADF81000182051
:104450008DF8130003208DF8120004A9BB48FBF768
:10446000C9FF4FF48060ADF8100004208DF81300F0
:1044700004A9B648FBF7BEFF4FF4E13000900020DE
:10448000ADF80400ADF80600ADF80800ADF80C007A
:104490000C20ADF80A006946AD48FDF7E4F90121AA
:1044A000AB48FDF76CFA05B000BD08B54FF480606D
:1044B000FBF726FE27208DF8000004208DF8010070
:1044C00001208DF802008DF803006846FBF71DFE01
:1044D00008BD00B585B001218804FCF74BFA012125
:1044E0000820FCF73AFA4FF48060ADF8100018206D
:1044F0008DF8130003208DF8120004A99548FBF7EE
:1045000079FF4FF40060ADF8100004208DF813001F
:1045100004A99048FBF76EFFFFF7C7FF4FF4165052
:1045200000900020ADF80400ADF80600ADF80800DA
:10453000ADF80C000C20ADF80A0069468648FDF77E
:1045400092F9012240F225518348FDF724FA012116
:104550008148FDF714FA05B000BD70B504460D465C
:10456000E1B27B48FDF77BFA00BF40217848FDF7B8
:10457000E4FA0128F9D1204670BDF0B503460D4696
:104580001646002729460A2E03D000200870284628
:10459000F0BD33B9302001F8010B00200870284627
:1045A000F6E7002B03DA2D2001F8010B5B4242F203
:1045B00010720DE093FBF2F404B937B104F130004E
:1045C00001F8010B04FB123301270A2092FBF0F2E1
:1045D000002AEFDC002008702846D9E70FB470B538
:1045E00086B006460CA8019073E00B9800785C2812
:1045F0001CD10B98401C0B9000786E2809D07228B3
:104600000FD10D213046FDF72AFA0B98401C0B9074
:104610000BE00A213046FDF722FA0B98401C0B9064
:1046200003E00B98401C0B9000BF4BE00B98007808
:10463000252840D10B98401C0B900078642818D096
:10464000732833D1019810C801900BE021783046CF
:10465000FDF705FA00BF40213046FDF76EFA00284D
:10466000F9D0641C20780028F0D10B98401C0B90E6
:1046700020E0019820C801900A2202A92846FFF7ED
:104680007CFF02AC0BE021783046FDF7E8F900BF73
:1046900040213046FDF751FA0028F9D0641C2078FB
:1046A0000028F0D10B98401C0B9003E00B98401CA5
:1046B0000B9000BF06E00B9810F8011B0B903046E2
:1046C000FDF7CDF900BF40213046FDF736FA00284E
:1046D000F9D00B980078002887D106B070BC5DF83F
:1046E00014FB10B5044621461948FDF7B8F900BF80
:1046F00040211748FDF721FA0128F9D110BD10B566
:10470000044621461448FDF7AAF900BF402112488B
:10471000FDF713FA0128F9D110BD70B505462C46F6
:1047200003E02078FFF7EBFF641C20780028F8D125
:1047300070BD70B505462C4603E02078FFF7D1FF29
:10474000641C20780028F8D170BD000000080140EA
:1047500000380140000C0140004800407FB504468D
:104760000D460121C802FCF7F8F841F28830ADF897
:10477000080041F61F40ADF804000120ADF80A0022
:104780000020ADF8060001A91148FCF725FA012226
:1047900041210F48FCF775FD19208DF8000003201A
:1047A0008DF8010000208DF8020001208DF8030033
:1047B0006846FBF7AAFC7FBD10B501210448FCF751
:1047C000FAFF18B101210248FDF706F810BD0000FC
:1047D000002C01401FB501213D48FBF7DAFE012105
:1047E0000920FCF7BAF80120ADF80C0010208DF874
:1047F0000F0003208DF80E0003A93648FBF7FAFDE1
:104800000220ADF80C0028208DF80F0003A93148D4
:10481000FBF7F0FD01210846FBF700FF02200190A5
:1048200000208DF8080008208DF8090001208DF87F
:104830000A0001A8FBF7EFFC07208DF80000032019
:104840008DF8010001208DF802008DF80300684604
:10485000FBF75BFC1FBD10B50220FBF749FD48B319
:1048600000211D48FCF772FF01211B48FCF7E3FC07
:1048700001201A49086012E01748FCF78AFF0A284D
:1048800007DB00211448FCF7D6FC00201349086020
:1048900005E002210F48FBF73EFE104908600F4873
:1048A00000680028E8D100210B48FCF7C4FC022076
:1048B000FBF72FFD10BD10B501210648FBF745FEA3
:1048C0000C20FDF797FC01210248FBF740FE10BDCC
:1048D00000023000000C0140002C0140E0010020EB
:1048E00000B587B001214FF40170FCF736F84FF4A2
:1048F0000040FBF79AFF0120ADF8040000208DF87E
:10490000070001A92348FBF775FD2348FDF76EF961
:10491000002002908DF80C008DF80D004FF46020FF
:1049200004900020059001208DF8180002A91A4873
:10493000FDF783F901211848FDF7ABF91648FDF79B
:10494000CAF900BF1448FDF7CBF90028FAD1124884
:10495000FDF7D0F900BF1048FDF7D1F90028FAD1D2
:1049600007B000BD10B504460723012221460A48BE
:10497000FDF7FBF901210848FDF7CBF900BF022143
:104980000548FDF71EFB0028F9D00348FDF754FA4F
:1049900010BD000000080140002401400648804787
:1049A00006480047FEE7FEE7FEE7FEE7FEE7FEE714
:1049B000FEE7FEE7FEE7FEE7F5200008ED00000851
:1049C00038B50446FB4890F82400C0B114B1022069
:1049D000009001E000200090F64A1268D17BF54A71
:1049E000526810786B460122FDF766FD10B14FF05A
:1049F000FF3038BD9DF80010EE48417423E0ED48CB
:104A0000807A10B94FF0FF30F3E724B1E948407CD9
:104A100008B10020EDE714B10120009001E0002072
:104A20000090E44A1268D17BE24A526810786B46E3
:104A30000122FDF741FD10B14FF0FF30D9E79DF89D
:104A40000010DC4841740020D3E738B5002419E099
:104A5000D8480068C07AA04204D0D6480068407D9B
:104A6000A04200D10CE0D349496808786B46012286
:104A70002146FDF770FD10B14FF0FF3038BD00BF8B
:104A8000601CC4B2CB4840680079A042E0DC002042
:104A9000F4E770B504460D46C6480068C07AA042E7
:104AA00004D0C4480068407DA04202D14FF0FF30DE
:104AB00070BDC04840680079A04202DC4FF0FF3072
:104AC000F6E7BC49496808782B4601222146FDF7E4
:104AD00042FDEDE738B50446B64890F82300A04201
:104AE00001D1002038BD14B13020009001E0002039
:104AF0000090B048807C20B19DF8000040F002009A
:104B00000090AC4890F8220020B19DF8000040F0E1
:104B100080000090A74A1268117DA64A526810785A
:104B20006B460122FDF7C8FC10B14FF0FF30D9E70A
:104B3000A04880F823400020D4E738B5044614F09C
:104B4000700F02D00120009005E014B10020009009
:104B500001E040200090974A1268917C954A526883
:104B600010786B460122FDF7A7FC20B10021914887
:104B70008172481E38BD9DF8000020F040008D492C
:104B800008730020009014F0400F04D19DF800003D
:104B900040F00400009014F0200F04D19DF80000B4
:104BA00040F00200009014F0100F04D19DF80000B6
:104BB00040F00100009014F0080F04D19DF80000AF
:104BC00040F0380000907B4A1268D17C794A5268E4
:104BD00010786B460122FDF76FFC20B1002175486B
:104BE0008172481EC6E724B1082C02D00020FFF7CE
:104BF00071FF70488472002101753220FDF707FBB8
:104C00000020B7E738B504466A48807CA04201D14D
:104C1000002038BDF4B3674A12681179654A5268BA
:104C200010786B460122FDF796FC10B14FF0FF3073
:104C3000EFE79DF8000020F0200000905D4A126828
:104C400011795C4A526810786B460122FDF734FCFA
:104C500010B14FF0FF30DCE70320FDF7D8FA022057
:104C60000090544890F8220020B19DF8000040F0D8
:104C7000800000904F4890F8230020B19DF800007C
:104C800040F0300000904B4A1268117D494A52684A
:104C9000107800E007E06B460122FDF70DFCC0B381
:104CA0004FF0FF30B5E7434A12681179414A526824
:104CB00010786B460122FDF74EFC10B14FF0FF302B
:104CC000A7E73C48807A10F0010F05D09DF800005E
:104CD00040F02000009004E09DF8000020F020004B
:104CE0000090344A12681179324A526810786B4643
:104CF0000122FDF7E1FB10B14FF0FF3089E70320FF
:104D0000FDF785FA2B4890F8220018B1802000901A
:104D100002E018E000200090264890F8230020B11F
:104D20009DF8000040F030000090224A1268117D8A
:104D3000204A526810786B460122FDF7BDFB10B186
:104D40004FF0FF3065E71B488474002061E708B529
:104D50001848807A10B94FF0FF3008BD002000904D
:104D6000144A1268D17B134A526810786B460122AC
:104D7000FDF7A2FB10B14FF0FF30EEE70D4A1268CD
:104D800051790C4A526810786B460122FDF794FB6A
:104D900010B14FF0FF30E0E7064A12681179054A7A
:104DA000526810786B460122FDF786FB20B14FF068
:104DB000FF30D2E7E4010020F84890F8240090B3D7
:104DC0000C200090F54A12681179F44A5268107864
:104DD0006B460122FDF770FB10B14FF0FF30BCE7CE
:104DE0003220FDF714FAC0200090EC48807A10F0D1
:104DF000010F04D09DF8000040F020000090E74A29
:104E000012681179E54A526810786B460122FDF765
:104E100053FB10B14FF0FF309FE7E048407C18B1E2
:104E20000220009002E01FE000200090DB4A1268A0
:104E3000D17BDA4A526810786B460122FDF73CFBC1
:104E400010B14FF0FF3088E700200090D34A12687D
:104E50005179D24A526810786B460122FDF72CFB3B
:104E6000B0B34FF0FF3078E704200090CB4A1268CF
:104E70001179CA4A526810786B460122FDF71CFB73
:104E800010B14FF0FF3068E7C448807C20B9C348B8
:104E9000807A10F0010F02D14020009001E06020E4
:104EA0000090BE4A12681179BC4A526810786B466D
:104EB0000122FDF701FB10B14FF0FF304DE732202A
:104EC000FDF7A5F9B548407C18B10120009002E03B
:104ED0001EE000200090B14A1268D17BAF4A5268B0
:104EE00010786B460122FDF7E7FA10B14FF0FF3062
:104EF00033E7AA4A12685179A84A52681078A74B3A
:104F000010330122FDF7D8FA10B14FF0FF3024E73B
:104F1000002022E770B50446002624F001049F48D3
:104F200090F8240008B1002070BD9C48807A10B928
:104F30004FF0FF30F8E79948057C807A2040974988
:104F400008740846007CA04202D04FF0FF3600E013
:104F5000002614B99148007D18B10120FFF730FDFB
:104F600002E00020FFF72CFD3CB1FFF7F0FE20B17E
:104F70008A4805744FF0FF30D6E73046D4E738B59D
:104F800004468648807A10B94FF0FF3038BDBC2CFB
:104F900002DB0120009015E0622C02DB0220009071
:104FA00010E02A2C02DB032000900BE0142C02DB23
:104FB0000420009006E00A2C02DB0520009001E0AE
:104FC000062000907548C07A9DF80010884201D1F3
:104FD0000020DBE7714A12689178704A52681078B5
:104FE0006B460122FDF768FA10B14FF0FF30CDE7B4
:104FF0009DF800106948C1720020C7E738B5044623
:10500000282C02DD4FF0FF3038BDDCB90020FFF75F
:1050100061FD00208DF8000007208DF801005F4A37
:105020001268917C5D4A526810786B460222FDF747
:1050300043FA10B14FF0FF30E6E700215748017501
:105040000020E1E70120FFF745FD20208DF800005A
:10505000012C06D100208DF801000520FFF78FFFFD
:1050600017E0052C06DC01208DF801000520FFF774
:1050700086FF0EE0142C06DC02208DF801000A20C9
:10508000FFF77DFF05E003208DF801001420FFF7F6
:1050900076FF9DF80100072101EB8010C0B28DF86A
:1050A00001003E4A1268917C3C4A526810786B4677
:1050B0000222FDF701FA10B14FF0FF30A4E70821FA
:1050C0003648817200210173012101750020FFF72C
:1050D00021FF002098E738B504463048807A10B99F
:1050E0004FF0FF3038BD2D4890F8240010B14FF03C
:1050F000FF30F7E72948007D50B134B1282C04DC9B
:10510000E0B2FFF77BFF0020ECE70020FFF776FF1F
:10511000042C01DA042404E0B4F57A7F01DD4FF4B5
:105120007A744FF47A7090FBF4F0401EC0B2009095
:105130001A4A12685178194A526810786B4601224F
:10514000FDF7BAF910B14FF0FF30CBE79DF8000042
:10515000401C4FF47A7191FBF0F081B20F48C1818D
:105160000146C9894810FFF70AFF0020BAE738B5A1
:1051700004460A48807A10B94FF0FF3038BD022C3F
:1051800006D0042C07D0082C0AD0102C0ED10AE02F
:10519000002000900DE0082000900AE0E4010020CB
:1051A0001020009005E01820009002E04FF0FF3042
:1051B000E4E700BFF948407A9DF80010B0EBE10F3A
:1051C00001D10020DAE7F54A1268D179F34A526832
:1051D00010786B460122FDF76FF910B14FF0FF30E8
:1051E000CCE79DF80000C010EC4948720020C5E7EC
:1051F00038B50446E948807A10B94FF0FF3038BD21
:10520000FA2C09D0B4F5FA7F09D0B4F57A7F09D029
:10521000B4F5FA6F0CD108E0002000900BE00820F4
:10522000009008E01020009005E01820009002E0B7
:105230004FF0FF30E3E700BFD848007A9DF8001038
:10524000B0EBE10F01D10020D9E7D44A126891797F
:10525000D24A526810786B460122FDF72DF910B141
:105260004FF0FF30CBE79DF80000C010CB4908722B
:105270000020C4E71CB580208DF80000C74A1268E2
:10528000917CC64A526810786B460122FDF714F9EA
:1052900010B14FF0FF301CBD6420FCF7B8FF0020B8
:1052A0008DF80000BD4A1268917CBC4A52681078A3
:1052B0006B460122FDF700F910B14FF0FF30EAE72D
:1052C000B64A1268917DB54A526810786B4606223C
:1052D000FDF741F910B14FF0FF30DCE79DF8050014
:1052E000C007400F9DF8031001F0010140EA4100A2
:1052F0009DF8011001F0010140EA01048CB1012C7C
:1053000003D10121A548C17430E0022C03D1002152
:10531000A248C1742AE0A2A0FFF70BFA4FF0FF30B9
:10532000B9E79E4A1268D1789C4A526810786B4659
:105330000122FDF710F910B14FF0FF30ABE79DF8F7
:10534000000000F00F042CB99F48FFF7F2F94FF06E
:10535000FF30A0E7042C06D19CA0FFF7EAF9012159
:105360008E48C17402E000218C48C174FF218B4833
:105370008172FF2089490872FF2188484172C172F9
:105380004FF6FF71C181FF21017481740121017306
:1053900080F82210002180F8231041750175083033
:1053A000C0F80E10C0F81210C0F81610083880F8B7
:1053B000241080F82510C1844FF4FA60FFF718FF1D
:1053C00010B14FF0FF3066E70220FFF7D0FE10B1BA
:1053D0004FF0FF305FE72A20FFF7D1FD10B14FF00B
:1053E000FF3058E73220FFF776FE10B14FF0FF3064
:1053F00051E70020FFF78EFD10B14FF0FF304AE774
:105400000020FFF7FFFB10B14FF0FF3043E7002013
:10541000FFF793FB00203EE77CB504460D465F484E
:10542000807A10F0700F02D14FF0FF307CBD5B4AE4
:105430001268117B594A526810786B460622FDF7B4
:105440008AF810B14FF0FF30F0E79DF801009DF8A9
:10545000001040EA012000B220809DF803009DF872
:10546000021040EA012000B260809DF805009DF81E
:10547000041040EA012000B2A08015B12846FCF7D4
:10548000D2FE0020D2E77CB504460D464348807A20
:1054900010F0080F02D14FF0FF307CBD3F4A126878
:1054A000517B3E4A526810786B460622FDF753F84E
:1054B00010B14FF0FF30F0E79DF801009DF80010AB
:1054C00040EA012000B220809DF803009DF8021000
:1054D00040EA012000B260809DF805009DF80410AC
:1054E00040EA012000B2A08015B12846FCF79BFEDF
:1054F0000020D2E72DE9FE4F05460C462748807A6A
:1055000018B94FF0FF30BDE8FE8F244A1268917B36
:10551000224A5268107802AB0222FDF71CF810B143
:105520004FF0FF30EFE79DF809009DF8081040EAC2
:10553000012006B214B12046FCF775FE17494968F0
:10554000C88802F00BFC154901904968B1F90800C0
:1055500002F0FBFB8346304602F0F7FB5946009011
:1055600002F0F2F98246019902F02AFA81461F49B7
:1055700002F098F980464FF08F4102F0EBF90746B0
:1055800002F002FC28600020BDE710B588B0044698
:105590001CB94FF0FF3008B010BD29E0E401002035
:1055A000556E737570706F7274656420736F667476
:1055B000776172652070726F6475637420726576AE
:1055C0002025642E0A0000007897000848616C6668
:1055D0002073656E7369746976697479207061727D
:1055E0007420666F756E642E0A00000000000C4285
:1055F000206830B9606820B9A06810B9002008B0F0
:1056000010BDFA494968087806AB03221146FCF739
:10561000A2FF10B14FF0FF30F1E79DF8180008210C
:1056200001EB201000F00F00ADF800009DF819000C
:1056300001EB201000F00F00ADF802009DF81A00F9
:1056400001EB201000F00F00ADF8040020684100CD
:10565000BDF90000403091FBF0F000B2ADF8100051
:1056600060684100BDF90200403091FBF0F000B2EB
:10567000ADF81200A0684100BDF90400403091FB74
:10568000F0F000B2ADF81400D8494968087806ABCC
:1056900006221146FCF75FFF10B14FF0FF30AEE776
:1056A0009DF819009DF8181040EA012000B2ADF8ED
:1056B00008009DF81B009DF81A1040EA012000B276
:1056C000ADF80A009DF81D009DF81C1040EA01206D
:1056D00000B2ADF80C00BDF81000BDF80810084489
:1056E00000B2ADF81000BDF81200BDF80A10084471
:1056F00000B2ADF81200BDF81400BDF80C1008445B
:1057000000B2ADF81400BDF81000000A8DF81800C2
:10571000BDF81000C0B28DF81900BDF81200000AE3
:105720008DF81A00BDF81200C0B28DF81B00BDF84C
:105730001400000A8DF81C00BDF81400C0B28DF8EA
:105740001D00AA494968087806AB06221146FCF7F5
:10575000B3FE10B14FF0FF3051E700204FE7014694
:10576000A248007A30B1012807D0022809D00328C6
:105770000FD10AE0FA2008800EE04FF4FA7008809A
:105780000AE04FF47A70088006E04FF4FA6008806F
:1057900002E00020088000BF00BF002070470146E3
:1057A0009248407A30B1012807D0022808D0032857
:1057B0000CD108E0022008700BE00420087008E01B
:1057C0000820087005E01020087002E04FF0FF305C
:1057D000704700BF8548C07C18B108784006000EAD
:1057E00008700020F4E701468048C07A082817D2E4
:1057F000DFE800F01704070A0D101318BC2008801A
:1058000013E06220088010E02A2008800DE01420B8
:1058100008800AE00A20088007E00520088004E0EC
:1058200000BF00BF0020088000BF00BF00207047FD
:1058300001466E4890F8240010B14FF0FF307047D9
:105840006A48C08908800020F9E7014600200880E6
:10585000401E704701464FF0FF30704701466348D5
:10586000007A30B1012807D0022808D003280CD1D3
:1058700008E05F4808600BE05E48086008E05E48AA
:10588000086005E05D48086002E04FF0FF307047B7
:1058900000BF0020FBE701465448407A30B10128A0
:1058A00008D002280AD0032810D10BE04FF4804022
:1058B00008800EE041F69C7008800AE04FF48050AA
:1058C000088006E04FF40060088002E04FF0FF30EF
:1058D000704700BF4548C07C10B108884010088060
:1058E0000020F5E701464148007C08700020704721
:1058F00001463E48807A10B10120087001E0002086
:1059000008700020704738B504463848807A10B9CE
:105910004FF0FF3038BD354A1268117C334A526867
:1059200010786B460222FCF716FE10B14FF0FF30E4
:10593000F0E79DF801009DF8001040EA012000B258
:1059400020800020E6E72DE9FE4F804689469246FA
:105950001D46DDF830B000260024244890F82400CD
:1059600010B1601EBDE8FE8F002028701F48807AAD
:1059700010B94FF0FF30F5E71C48007C10B94FF02C
:10598000FF30EFE71948007C10F0400F01D0B01C49
:10599000C6B21648007C10F0200F01D0B01CC6B271
:1059A0001248007C10F0100F01D0B01CC6B20F4896
:1059B000007C10F0080F01D0B01DC6B20B4A12686F
:1059C000917A0A4A526810786B460222FCF7C3FDAE
:1059D00010B14FF0FF30C5E79DF801009DF80010B1
:1059E00040EA0127B7420BDA0020BBE7E4010020C0
:1059F00000000343000083423333034233338341C7
:105A0000FB4840684088B7EB600F17DDF84A126822
:105A1000517CF74A526810786B460122FCF79BFDD7
:105A200010B14FF0FF309DE79DF8000010F0100F0F
:105A300004D0FFF78CF96FF0010093E75046FCF7B4
:105A4000F2FBEB4A1268D17AE94A526810786B4649
:105A50003246FCF780FD10B14FF0FF3082E797FB34
:105A6000F6F0401E8BF8000000202870B4422AD0C7
:105A7000DF48007C10F0080F25D0601C1DF80000E6
:105A80001DF8041040EA012000B2A9F80000E01C53
:105A90001DF80010A01C1DF8000041EA002000B213
:105AA000A9F80200601D1DF80010201D1DF800005F
:105AB00041EA002000B2A9F80400287840F008006C
:105AC0002870A01D84B2B44214D0C948007C10F0E4
:105AD000400F0FD0601C1DF800001DF8041040EAB4
