:020000040800F2
:1000000068070020293D0008552A0008572A0008E3
:10001000592A00085B2A00085D2A00080000000039
:100020000000000000000000000000005F2A00083F
:10003000612A000800000000632A0008652A000801
:10004000433D0008433D0008433D0008433D000890
:10005000433D0008433D0008433D0008E13B0008E4
:10006000433D0008433D0008433D0008433D000870
:10007000433D0008433D0008433D0008433D000860
:10008000433D0008433D0008433D0008433D000850
:10009000433D0008433D0008433D0008433D000840
:1000A000433D00083F3B0008433D0008433D000836
:1000B000433D00080522000813220008433D0008C4
:1000C000433D0008433D0008433D0008433D000810
:1000D000433D0008433D0008433D0008352F00081C
:1000E000433D0008433D0008433D0008DFF80CD0C5
:1000F00006F0DCFE00480047612000086807002089
:100100002A4908432A490860704770B50F23C2780E
:1001100001260178002A1ED0254A126802F4E06206
:10012000C2F5E062120AC2F10404D3404578A5404A
:1001300082781A402A43120101F1E02181F800245B
:10014000007800F01F018E404009800000F1E0209F
:10015000C0F8006170BD01F01F00864048098000B2
:1001600000F1E020C0F8806170BD124A11400143E7
:100170000F48001F016070470D4A121D002903D06F
:100180001168014311607047116881431160704725
:100190004FF0E021042804D0086920F00400086131
:1001A0007047086940F00400086170470000FA05D4
:1001B0000CED00E080FFFF1F384900200860091D9A
:1001C0000860091D0860091D08603449344814316D
:1001D0000860704730B5314A83790168002B2AD016
:1001E00013688B431360111D0B680468A3430B60F5
:1001F000017911440B68046823430B60274C0834D1
:100200002168036899432160231D19680568A94383
:1002100019604179102905D011440A680068024329
:100220000A6030BD216802681143216019680068C6
:100230000143196030BD0079104402688A430260AE
:1002400030BD0021016001710C2242718171704743
:10025000124910310A6802430A60704701460020C3
:100260000E4A143212680A4200D0012070470B492E
:1002700014310860704701460020084A12680A409D
:10028000064B14331B680B4202D0002A00D0012019
:1002900070470249143108607047000000040140B3
:1002A000FFFF0F0010B59C49884209D101210420AD
:1002B00000F07DFA0021BDE81040042000F077BA7C
:1002C0009649884209D10121082000F070FA0021E6
:1002D000BDE81040082000F06ABA9149884209D16F
:1002E0000121102000F063FA0021BDE81040102029
:1002F00000F05DBA8B49884209D10121202000F02D
:1003000056FA0021BDE81040202000F050BA86497E
:10031000884209D10121402000F049FA0021BDE8BE
:100320001040402000F043BA8049884209D10121A1
:10033000802000F03CFA0021BDE81040802000F051
:1003400036BA7B4988420AD184150121204600F043
:100350002EFA2046BDE81040002100F028BA10BD5A
:1003600010B50121084600F022FA0021BDE8104036
:10037000012000F01CBA2DE9F0410022CC7804F0F5
:100380000F03E40601D58C7823430C784FF00F0758
:1003900014F0FF0F4FF0010C1CD005680CFA02F4AA
:1003A0000E882640A64211D1960007FA06F825EAE3
:1003B000080503FA06F848EA0505CE78282E02D08B
:1003C000482E02D002E0446100E00461521C082A79
:1003D000E4D305600A88FF2A1ED94568002202F18D
:1003E00008060CFA06F40E882640A64210D19600A4
:1003F00007FA06F825EA080503FA06F848EA0505AB
:10040000CE78282E00D14461CE78482E00D10461E8
:10041000521C082AE3D34560BDE8F0814FF6FF7116
:100420000180022181700421C170704702460020C2
:1004300092680A4200D001207047806880B27047FD
:1004400002460020D2680A4200D001207047C068EE
:1004500080B270470161704741617047002A01D046
:100460000161704741617047C160704741F480325B
:1004700082618161826181698069704710B52D4B0D
:100480001A684FF68074224042EA00100843186050
:1004900010BD2949C8617047F0B5264C002801DA23
:1004A000E36900E06368C0F30346420D120185B2C0
:1004B000C0F301579540032F07D0C2020CD5032289
:1004C000B240934343F0706209E023F070626368C6
:1004D00023F07063636002E0AB4343F0706201B1EC
:1004E0002A43002801DAE261F0BD6260F0BD10B578
:1004F0008A07120F0F23934021F003040D49214472
:100500008C689C438C608B68904003438B6010BD6B
:100510000949DC310860704700080140000C0140C7
:10052000001001400014014000180140001C01406F
:10053000002001400000014000002042B448016852
:1005400041F0010101604168B24A11404160016817
:10055000B14A11400160016821F4802101604168C5
:1005600021F4FE0141604FF41F0181607047A849EA
:100570000A6822F480320A600A6822F480220A6043
:10058000B0F5803F07D0B0F5802F03D1086840F464
:10059000A02008607047086840F480300860704709
:1005A0000346002059099A4A01290AD002290AD093
:1005B000516A03F01F02012393400B4200D0012037
:1005C00070471168F5E7116AF3E718B5002000904D
:1005D0004FF4A0643120FFF7E3FF0099491C00911C
:1005E0000099A14201D00028F4D03120FFF7D8FFB4
:1005F00008B1012018BD002018BD854A116821F0FE
:10060000F80141EAC00010607047844908607047F3
:100610007F4B5A6822F47C1208431043586070479D
:100620007E49086670477A4A516821F00301014308
:10063000516070477648406800F00C007047744A7B
:10064000516821F0F001014351607047704A5168D0
:1006500021F4E0610143516070476D4A516821F413
:10066000605141EAC00050607047694A002903D0D8
:10067000517A014351727047517A814351727047E8
:100680006649D83108607047614A516821F4404199
:100690000143516070475E49002220310A7001F821
:1006A0002029012805D0042802D1052081F8200046
:1006B0007047012081F82000704759490860704751
:1006C00053490A6A02430A6270475549443908602F
:1006D000704710B54E4A516801F00C01514B00298A
:1006E00027D0042927D0082927D00360516801F0BA
:1006F000F00109094C4B5C5C0168E14041605468C1
:1007000004F4E064240A1C5D21FA04F48460546853
:1007100004F46054E40A1B5DD940C160526802F4DD
:100720004042920B404B1B1F9A5CB1FBF2F10161FE
:1007300010BD0360DAE70360D8E7516801F4701177
:10074000536803F48033022404EB914133B15368BE
:100750009B0307D5354B59430160C7E7334B5943DA
:100760000160C3E72F4B59430160BFE7284A0029C6
:1007700003D051690143516170475169814351610F
:100780007047234A002903D0916901439161704762
:1007900091698143916170471D4A002903D0D16955
:1007A0000143D1617047D1698143D1617047184AD3
:1007B000002903D0D1680143D1607047D1688143DB
:1007C000D1607047124A002903D0116901431161B9
:1007D00070471169814311617047114940390860C0
:1007E00070470E49C86470470949C8717047084886
:1007F000416A41F080714162704701460020044A1D
:1008000092680A4200D001207047014988727047FF
:10081000001002400000FFF8FFFFF6FE0000424219
:100820008004424200127A000400002000093D00CA
:1008300010B5FE4988420AD1C41401212046FFF7B1
:10084000B6FF2046BDE810400021FFF7B0BFB0F171
:10085000804F0CD0F649884213D101210220FFF7C6
:10086000B1FF0021BDE810400220FFF7ABBF01211E
:100870000846FFF7A7FF0021BDE810400120FFF761
:10088000A1BFEC49884209D101210420FFF79AFF5A
:100890000021BDE810400420FFF794BFE6498842DC
:1008A00009D101210820FFF78DFF0021BDE810408C
:1008B0000820FFF787BFE149884209D101211020B4
:1008C000FFF780FF0021BDE810401020FFF77ABF3E
:1008D000DB49884209D101212020FFF773FF002165
:1008E000BDE810402020FFF76DBFD64988420AD1ED
:1008F000441401212046FFF75AFF2046BDE810406E
:100900000021FFF754BFD04988420AD10121CC040D
:100910002046FFF74CFF2046BDE810400021FFF7BE
:1009200046BFCA4988420AD101210C052046FFF77B
:100930003EFF2046BDE810400021FFF738BFC44904
:1009400088420AD101214C052046FFF730FF20469E
:10095000BDE810400021FFF72ABFBE49884209D1F7
:1009600001214020FFF72EFF0021BDE8104040206C
:10097000FFF728BFB849884209D101218020FFF73D
:1009800021FF0021BDE810408020FFF71BBFB349C5
:1009900088420AD1841501212046FFF713FF204623
:1009A000BDE810400021FFF70DBFAD4988420AD1D4
:1009B00001210C042046FFF7FAFE2046BDE8104056
:1009C0000021FFF7F4BEA74988420AD101214C0457
:1009D0002046FFF7ECFE2046BDE810400021FFF75F
:1009E000E6BEA14988420AD101218C042046FFF7C6
:1009F000DEFE2046BDE810400021FFF7D8BE10BD46
:100A000030B50288894C8F4DA0420DD0A8420BD042
:100A1000B0F1804F08D0864B984205D0854B984264
:100A200002D0854B984203D122F070034A881A43C2
:100A3000824B984206D0824B984203D022F44073F6
:100A4000CA881A4302808A8882850A880285A04261
:100A50000AD0A84208D0824A904205D0814A9042EA
:100A600002D0814A904201D1097A01860121818216
:100A700030BD30B5028C22F001020284028C8388E2
:100A8000048B24F0700424F003050C882C4322F01E
:100A900002020D8915434A882A43644DA8420BD0AF
:100AA000684DA84208D06E4DA84205D06D4DA842B1
:100AB00002D06D4DA8420FD122F008054A892A4381
:100AC00022F004058A882A4323F4807323F40073F8
:100AD0008D891D43CB892B4383800483C9888186FC
:100AE000028430BD70B5028C22F010020284028CA8
:100AF0008388048B24F4E04424F440760D884FF678
:100B0000FF7404EA0525354322F020020E8904EA29
:100B1000061616434A8804EA02123243434EB04294
:100B200002D0484EB04217D122F080024E8904EA2A
:100B30000616164326F040068A8804EA021232435B
:100B400023F4806323F400638E8904EA86061E433F
:100B5000CB8904EA8303334383800583C9880187F3
:100B6000028470BD70B5028C22F480720284028C03
:100B70008388848B24F0700424F003040D882543BB
:100B800022F400720E894FF6FF7404EA062616431B
:100B90004A8804EA02223243244EB04202D0294E4F
:100BA000B04217D122F400664A8904EA0222324395
:100BB00022F480668A8804EA0222324323F48053B6
:100BC00023F400538E8904EA06161E43CB8904EAF7
:100BD0000313334383808583C9888187028470BD72
:100BE00070B5028C22F480520284058C8288838B3B
:100BF00023F4E04323F440760C884FF6FF7303EAB6
:100C00000424344325F400550E8903EA06362E43A6
:100C10004D8803EA05353543044EB04202D0094EF3
:100C2000B04226D122F480468A891FE0002C014080
:100C30000004004000080040000C0040001000408C
:100C40000014004000340140004C014000500140BD
:100C50000054014000180040001C004000200040EB
:100C600000400140004401400048014003EA821274
:100C7000324382808483C988A0F84010058470BD07
:100C8000828B22F440628283828B4FF6FF7303EAE9
:100C900001210A4382837047F0B5048C24F4805408
:100CA0000484868B048C4FF6FF7505EA013726F421
:100CB000734605EA0222324305EA03331343F74A37
:100CC00090420ED0F64A90420BD0B0F1804F08D03F
:100CD000F44A904205D0F44A904202D0F34A90423E
:100CE00005D124F40051394341F4805104E024F447
:100CF00002420A4342F4805183830184F0BD828B17
:100D000022F00C028283828B0A4382837047F0B503
:100D1000048C24F480740484858B048C4FF6FF7754
:100D200007EA012625F0F30507EA031313432B43D3
:100D3000DA4A90420ED0DA4A90420BD0B0F1804F9E
:100D400008D0D84A904205D0D74A904202D0D74A1C
:100D5000904205D124F40071314341F4807104E0E4
:100D600024F420620A4342F4807183830184F0BD3D
:100D7000028B22F440620283028B4FF6FF7303EA78
:100D800001210A4302837047F0B5048C24F010045B
:100D90000484068B048C4FF6FF7505EA011726F4D0
:100DA000734605EA0333334305EA02221A43BB4B79
:100DB00098420ED0BA4B98420BD0B0F1804F08D079
:100DC000B84B984205D0B84B984202D0B74B9842E6
:100DD00005D124F02001394341F0100104E024F052
:100DE000A0030B4343F0100102830184F0BD028B8A
:100DF00022F00C020283028B0A430283704770B513
:100E0000048C24F001040484058B048C25F0F30584
:100E10004FF6FF7606EA031313432B439F4A904293
:100E20000ED09F4A90420BD0B0F1804F08D09D4A1F
:100E3000904205D09C4A904202D09C4A904205D1F3
:100E400024F002020A4342F0010104E024F00A0205
:100E50000A4342F001010383018470BD70B5054669
:100E60000C468E48854209D08D48854206D0B5F1A2
:100E7000804F03D08B48854200D08B482088618802
:100E8000A288238958B1042811D0082817D02846F1
:100E9000FFF702FFE1882846BDE87040F0E62846EB
:100EA000FFF7ADFFE1882846BDE870409FE7284680
:100EB000FFF76AFFE1882846BDE8704058E72846FA
:100EC000FFF725FFE1882846BDE8704017E72DE9C8
:100ED000F04107460C46002501266188002900D113
:100EE0000225A288012A00D102262088238988B100
:100EF0003846FFF749FFE1883846FFF739FF238975
:100F0000324629463846FFF77AFFE1883846BDE881
:100F1000F0416CE73846FFF772FFE1883846FFF78B
:100F200066FF2389324629463846FFF72DFFE188C0
:100F30003846BDE8F0411BE710B50A884B88CC88DD
:100F40001A438B8823431A430B891A434B89898997
:100F50001A430A43A0F8442010BD4FF6FF71818068
:100F600000210180C1804180017270470021018011
:100F700041808180C180018141818181C18170472F
:100F800000210180418001228280C180018170475F
:100F90000021018041808180C18001814181818166
:100FA0007047002904D0018841F001010180704799
:100FB000018821F0010101807047002905D030F837
:100FC000441F41F400410180704730F8441FC1F3D1
:100FD0000E0101807047002A03D082890A43828172
:100FE000704782898A4382817047818270471143AA
:100FF000A0F848107047002A03D082890A438281F2
:10100000704782898A4382817047018921F00701F4
:1010100001817047028922F070020A430281704701
:1010200000B503461846FFF7F5FF188940F00700A2
:10103000188100BD70B50D4604461146602D0CD0D8
:1010400001222046FFF7DBFE29462046FFF7E2FF9C
:10105000208940F00700208170BD01222046FFF763
:1010600093FEF1E730B50489E4B24FF6FF7505EA67
:10107000032313430B432343038130BD10B50446C0
:101080002046FFF7EFFF208920F0070040F007001F
:1010900020F0700040F07000208110BD002C014055
:1010A000003401400004004000080040000C0040F3
:1010B00010B504462046FFF7D5FF208940F4804054
:1010C0002081EAE7018582827047028822F070025F
:1010D0000A430280704770B50589048B068C25F0A1
:1010E00007050D434FF6FC410C4040F201110C4343
:1010F00026F022064FF6FF7101EA03111143314336
:1011000005810483018470BD028B22F070020A43C2
:1011100002837047028B22F4E0424FF6FF7303EA2A
:101120000121114301837047828B22F070020A4330
:1011300082837047828B22F4E0424FF6FF7303EA0A
:101140000121114381837047002904D0018841F0B7
:10115000800101807047018821F080010180704783
:10116000002904D0818841F0040181807047818882
:1011700021F0040181807047002904D0818841F06A
:10118000080181807047818821F0080181807047C3
:10119000002904D0818841F0010181807047818855
:1011A00021F0010181807047028B22F008020A437E
:1011B00002837047028B22F400624FF6FF7303EA4A
:1011C0000121114301837047828B22F008020A43F8
:1011D00082837047828B22F400624FF6FF7303EA2A
:1011E0000121114381837047028B22F004020A43DC
:1011F00002837047028B22F480624FF6FF7303EA8A
:101200000121114301837047828B22F004020A43BB
:1012100082837047828B22F480624FF6FF7303EA69
:101220000121114381837047028B22F080020A431F
:1012300002837047028BC2F30E024FF6FF7303EA7C
:101240000121114301837047828B22F080020A43FF
:1012500082837047828BC2F30E024FF6FF7303EA5C
:101260000121114381837047028C22F002020A435C
:1012700002847047028C22F008020A4302847047FD
:10128000028C22F020024FF6FF7303EA0111114392
:1012900001847047028C22F080024FF6FF7303EA4C
:1012A0000111114301847047028C22F400724FF641
:1012B000FF7303EA0121114301847047028C22F479
:1012C00000624FF6FF7303EA012111430184704766
:1012D000028C22F400524FF6FF7303EA01311143EE
:1012E0000184704710B501238B40048C9C43048417
:1012F000038C8A4013430384CFE610B504238B404C
:10130000048C9C430484038C8A4013430384C4E606
:1013100030B500F1180301248C40058CA5430584E9
:10132000002911D008290FD0091FC1F34E0018441D
:10133000016821F4E041016001684FF6FF7303EAA0
:1013400002221143016030BD03EB5100016821F01E
:101350007001016001681143016030BD002904D0B3
:10136000018841F0020101807047018821F00201EB
:1013700001807047002904D0018841F004010180F8
:101380007047018821F0040101807047002904D0D2
:10139000818841F0800181807047818821F080013F
:1013A00081807047028822F00802028002880A4386
:1013B00002807047828822F07002828082880A430D
:1013C00082807047028922F00702028102890A4363
:1013D00002817047028922F08002028102890A4359
:1013E000028170478184704781857047818670478C
:1013F0000187704781877047A0F8401070470288C6
:1014000022F44072028002880A4302807047808E74
:101410007047008F7047808F7047B0F8400070476A
:10142000808C7047008D704702460020128A0A4265
:1014300000D001207047C943018270470246002056
:10144000138A0B4092890A40002B02D0002A00D058
:1014500001207047C94301827047000010B5E1497F
:1014600088420AD101218C032046FFF7A0F92046CB
:10147000BDE810400021FFF79AB9DB4988420AD144
:1014800001214C042046FFF79DF92046BDE810409D
:101490000021FFF797B9D54988420AD101218C0470
:1014A0002046FFF78FF92046BDE810400021FFF7E6
:1014B00089B9CF4988420AD10121CC042046FFF7DF
:1014C00081F92046BDE810400021FFF77BB9C949EA
:1014D00088420AD101210C052046FFF773F9204606
:1014E000BDE810400021FFF76DB910BD30B585B0E3
:1014F00004460D46208A4CF6FF710840E9880143F6
:101500002182A0894EF6F3110840A9882A89114347
:101510006A8902431143A181A08A4FF6FF41084026
:10152000A9890143A1826846FFF7D3F8AD488442F8
:1015300001D1039800E00298A189090408D500EBC5
:10154000C00101EB001029684900B0FBF1F007E091
:1015500000EBC00101EB001029688900B0FBF1F03D
:101560006422B0FBF2F109010B096FF018056B431F
:1015700000EB8300A3891D044FF0320307D503EB72
:10158000C000B0FBF2F000F00700084306E003EBF8
:101590000010B0FBF2F000F00F000843208105B00E
:1015A00030BD4FF41651016000218180C18001815E
:1015B0000C2242818181704710B5038A4FF2FF02ED
:1015C00013400A884C8822438C88C9880C432243E4
:1015D0001A43028210BD0021018041808180C180B8
:1015E0007047002904D0818941F4005181817047FE
:1015F000818921F400518181704710B540F66A134A
:10160000C1F3421301F01F040121A140012B07D0B7
:10161000022B07D014303AB102680A43026010BDB1
:101620000C30F8E71030F6E702688A43026010BD1C
:10163000002A03D0828A0A4382827047828A8A43C0
:1016400082827047028A22F00F020282028A0A43D3
:1016500002827047828922F40062828182890A4371
:1016600082817047002904D0818941F00201818183
:101670007047818921F0020181817047028A22F03E
:1016800020020282028A0A4302827047002904D0A3
:10169000018A41F4804101827047018A21F480412E
:1016A00001827047C1F30801818070478088C0F3D0
:1016B00008007047818941F0010181817047028BE8
:1016C000D2B20283028B42EA012101837047028B6E
:1016D00002F47F420283028B0A430283704700298F
:1016E00004D0818A41F0200181827047818A21F0F3
:1016F000200181827047002904D0818A41F01001C5
:1017000081827047818A21F010018182704700290F
:1017100004D0818A41F0080181827047818A21F0DA
:10172000080181827047002904D0818941F4004179
:10173000818170478189C1F30E0181817047002941
:1017400004D0818A41F4006181827047818A21F44A
:10175000006181827047828A22F004028282828A3A
:101760000A4382827047002904D0818A41F0020135
:1017700081827047818A21F002018182704702468E
:10178000002012880A4200D0012070478A05C94310
:101790000180704770B5002440F66A12C1F342130D
:1017A00001F01F05012606FA05F2012B0CD0022BD1
:1017B0000DD0838A1340090A8E40008830400BB157
:1017C00000B10124204670BD83891340F3E7038AEA
:1017D0001340F0E740F66A120A0A01219140C9431A
:1017E000018070470038014000440040004800403C
:1017F000004C00400050004010B5DB4988420AD13F
:10180000441501212046FEF7D2FF2046BDE81040D6
:101810000021FEF7CCBFD54988420AD10415012129
:101820002046FEF7C4FF2046BDE810400021FEF729
:10183000BEBFCF4988420AD10121CC032046FEF722
:10184000B6FF2046BDE810400021FEF7B0BF10BD36
:1018500010B54268C74B1A400C790B6842EA042263
:10186000134343608268C44B1A40D1E902432343C7
:101870004C7942EA440213438360C26A22F4700244
:10188000097C491EC9B242EA0151C16210BD002162
:101890000160017141718160C16001210174704773
:1018A000002904D0816841F001018160704781689E
:1018B00021F0010181607047002904D0816841F462
:1018C000807181607047816821F480718160704708
:1018D000C9B2002A03D042680A4342607047426896
:1018E0008A4342607047816841F008018160704717
:1018F000014600208968090700D5012070478168EA
:1019000041F0040181607047014600208968490761
:1019100000D501207047002904D0816841F4A0015E
:1019200081607047816821F4A001816070470146A1
:1019300000208968490200D501207047426822F4DE
:101940006042491E42EA413141607047002904D09B
:10195000416841F4006141607047416821F40061D1
:101960004160704770B5072609290AD9C568A1F1F9
:101970000A0404EB4404A640B543A3401D43C560DC
:1019800007E0056901EB4104A640B543A3401D43B0
:1019900005611F23072A09D2446B521E02EB820203
:1019A00093409C4391400C43446370BD0D2A09D27F
:1019B000046BD21F02EB820293409C4391400C4384
:1019C000046370BDC46A0D3A02EB820293409C43EB
:1019D00091400C43C46270BD002904D0816841F479
:1019E000801181607047816821F4801181607047A7
:1019F000C06C80B270475C484C300068704700296A
:101A000004D0416841F4806141607047416821F42D
:101A1000806141607047002904D0416841F48051E1
:101A200041607047416821F480514160704782688D
:101A300022F4E0420A4382607047002904D08168A2
:101A400041F4004181607047816821F40041816068
:101A50007047002904D0816841F402118160704709
:101A6000816821F402118160704701460020896875
:101A7000890200D50120704770B5072609290AD9C7
:101A8000C568A1F10A0404EB4404A640B543A34091
:101A90001D43C56007E0056901EB4104A640B5435D
:101AA000A3401D430561836BC3F30154121B921CB9
:101AB00002EB82021F249440A34391400B438363B3
:101AC00070BD826B22F44012491E42EA01518163CB
:101AD000704708B500900098084400900098026094
:101AE00008BD08B500900098084428300090009880
:101AF000006880B208BD4268204B1A400A43426029
:101B00007047416282627047426822F01F020A43B6
:101B10004260704714490831002804D0086840F436
:101B2000000008607047086820F4000008607047F3
:101B30000246002012680A4200D001207047C943C3
:101B40000160704710B5024600200B0A5468C9B204
:101B50000C401168194202D0002C00D0012010BDA9
:101B6000090AC94301607047002401400028014070
:101B7000003C0140FFFEF0FFFDF7F1FFFFFD3FFFDE
:101B80000CB50022019200925248016841F4803164
:101B900001604FF4A063016801F4003100910199E4
:101BA000491C0191009911B901999942F3D1016839
:101BB000890302D50121009100E0009200990129DA
:101BC00030D145490A6842F010020A600A6822F0E2
:101BD00003020A600A6842F002020A60416841603A
:101BE00041684160416841F480614160416821F48D
:101BF0007C114160416841F4E8114160016841F0A5
:101C00008071016001688901FCD5416821F0030100
:101C10004160416841F0020141604168C1F38101C6
:101C20000229FAD10CBDABE710B52A48016841F092
:101C3000010101604168294A114041600168284A58
:101C400011400160016821F480210160416821F4A4
:101C5000FE0141604FF41F018160FFF7E4FF21495D
:101C60004FF00060086010BD10B51A4A506800F0CF
:101C70000C011D4B1D4800290ED004290ED0082947
:101C80000ED003605168194AC1F30311121D515C53
:101C90000268CA40026010BD0360F3E70360F1E729
:101CA000516801F47011536803F48033022404EB8B
:101CB000914133B153689B0307D50D4B59430160E4
:101CC000E0E70B4B59430160DCE7074B59430160E8
:101CD000D8E7000000100240002002400000FFF89A
:101CE000FFFFF6FE08ED00E000127A00140000206D
:101CF00000093D0004E00021491CC9B20A29FBD3B8
:101D0000401E411CF7D1704700B502464FF47A736C
:101D100002E01846FFF7EEFF521E501CF9D100BD3D
:101D20007047000008B50720009002E00098401EB0
:101D3000009000980028F9D108BD70B5B6484FF45E
:101D40000074046081150160FFF7ECFFB24D083D9F
:101D50002868B14E361D3460FFF7E4FF286880051F
:101D600001D5002070BD3460FFF7DCFF012070BD9D
:101D700070B5A94C4FF48076241D2660FFF7D2FF82
:101D800065152560FFF7CEFF241F2660FFF7CAFF09
:101D90002560BDE87040C5E770B59F4C4FF4807575
:101DA000241D2560FFF7BEFF60152060FFF7BAFF16
:101DB000201F0560FFF7B6FF2560BDE87040B1E762
:101DC00070B5954D4FF480742D1D2C60FFF7AAFF60
:101DD0002E1F60003060FFF7A5FF3460FFF7A2FF01
:101DE0002C60BDE870409DE770B58B4D4FF480745A
:101DF0002D1D2C60FFF796FF2E1F60003060FFF74F
:101E000091FF3460FFF78EFF834808380068800533
:101E100002D52C60002070BD2C60012070BD2DE922
:101E2000F047054608247C4E4FF40078361D6701C4
:101E3000DFF8E49111E03760FFF774FF280602D560
:101E4000C9F8008001E0C6F800806806050EFFF7BB
:101E500069FFC9F80070FFF765FF641EE4B2EAD2BB
:101E60003760BDE8F0872DE9F04708250024DFF84A
:101E7000A881A801C8F80000DFF89C91461008F17D
:101E80000407A9F108090EE06006040E3E60FFF7A2
:101E900049FFC8F80060FFF745FFD9F8000080054A
:101EA00001D544F001046D1EEDB2EDD23E60204636
:101EB000D7E708B501210820FEF763FC4FF4407016
:101EC000ADF8000002208DF8020014208DF8030008
:101ED000514869461038FEF74EFA08BD2DE9F04129
:101EE00004460F4616461D46FFF727FF68B16006F9
:101EF000000EFFF794FFFFF777FF48B13846FFF772
:101F00008EFFFFF771FF00240DE00020BDE8F08197
:101F1000FFF72EFF0020F9E7285DFFF780FFFFF7AE
:101F200063FF30B1641CB442F6DBFFF721FF0120F0
:101F3000ECE7FFF71DFF0020E8E710B5FFF7CEFF45
:101F400008B1002010BD4FF0FF3010BD2DE9F04169
:101F500006460F4614461D46FFF7EFFEB0B1700669
:101F6000000EFFF75CFFFFF73FFF88B13846FFF731
:101F700056FFFFF739FFFFF7E0FE012000EB4600B8
:101F8000C0B2FFF74CFFFFF72FFF0FE00020BDE7C7
:101F9000FFF7EEFE0020B9E7FFF765FF2870012C80
:101FA0000AD0FFF7F9FE6D1C641EE4B2002CF3D1D9
:101FB000FFF7DEFE0120A9E7FFF702FFF3E710B508
:101FC000FFF7C4FF08B1002010BD4FF0FF3010BD77
:101FD00070B504460D461646FFF7AFFEA0B1600689
:101FE000000EFFF71CFFFFF7FFFE78B12846FFF752
:101FF00016FFFFF7F9FE3046FFF711FFFFF7F4FE7B
:10200000FFF7B6FE012070BD002070BDFFF7B0FEE7
:10201000002070BD00207047100C014038B5012130
:102020001120FEF7AEFB01210B48FEF735FA4FF405
:10203000C044ADF8004003208DF8020010208DF858
:102040000300064D69462846FEF795F921462846C5
:10205000FEF700FA38BD0000000230000010014019
:10206000FFF7E2FD41F61F4141F2883001F03CFDEF
:1020700001F076FD01F0C0FB01F00CFC00F0BCF8B3
:1020800000F02AF8FFF7CAFF01F0F4FD00F0C8F8ED
:1020900000F027F9FFF70DFF0A2000F05DFD00F0CA
:1020A0001FFA00F01DFD00F062FD4FF0E020016915
:1020B00041F001010161074C00F086FA207818B167
:1020C00001F036FA01F043FA01F01BF901F0E5F8EE
:1020D000F2E700006800002038B501210820FEF773
:1020E00050FB4FF47044ADF8004010208DF8030011
:1020F00003208DF80200F64D69462846FEF73BF9AD
:1021000021462846FEF7A6F938BD08B50121084644
:10211000FEF742FB01210420FEF733FB0C20ADF853
:10212000000018208DF8030003208DF80200694696
:10213000E848FEF720F908BD70B588B040F2E730F6
:10214000ADF818000024ADF81440ADF81A40ADF811
:1021500016404FF0804605A93046FEF751FC60203E
:10216000ADF804000125ADF80650ADF80A40ADF811
:102170000C4001A93046FEF7F5FC08213046FFF778
:1021800023F8ADF80650ADF80A40ADF80C4001A9AF
:102190003046FEF725FD08213046FFF71BF80121E8
:1021A0003046FEF7D1FF01213046FEF7FAFE08B0B7
:1021B00070BD7FB50C466021ADF800100125ADF86B
:1021C0000250ADF806000020ADF80800AE076946E1
:1021D0003046FEF7C7FC08213046FEF7F5FFADF8A4
:1021E0000250ADF8064069463046FEF7F9FC08217A
:1021F0003046FEF7EFFF7FBD10B5FFF786FFBDE865
:10220000104099E7B4480188018821F0010101805C
:102210007047B2480188018821F0010101807047B0
:1022200010B588B001210220FEF7B6FA0121042082
:10223000FEF7A7FA6846FEF7F1F8C020ADF80000F7
:1022400004208DF8030003248DF802406946A1485C
:10225000FEF791F84FF4A060FDF752FF1D208DF8B6
:10226000040001208DF805008DF806408DF8070068
:1022700001A8FDF74AFF984C103C2046FEF7D8FA1B
:1022800005A8FEF76AFE0021ADF814104FF6FF72A4
:10229000ADF81820ADF81A10ADF8161005A92046B3
:1022A000FEF7AEFB0A231A4603212046FEF713FF72
:1022B00002A8FEF765FE0621ADF8101002A920461F
:1022C000FEF7CCFD01212046FFF7B5F801221146AB
:1022D0002046FEF780FE01212046FEF762FE08B090
:1022E00010BD10B588B001210420FEF755FA012178
:1022F0000820FEF746FA6846FEF790F8C020ADF8D1
:10230000000004208DF8030003248DF80240694684
:102310006F48FEF730F84FF4A060FDF7F1FE1E2085
:102320008DF8040001208DF805008DF806408DF829
:10233000070001A8FDF7E9FE684C103C2046FEF7B7
:1023400077FA05A8FEF709FE0021ADF814104FF644
:10235000FF72ADF81820ADF81A10ADF8161005A9E7
:102360002046FEF74DFB0A231A4603212046FEF7BE
:10237000B2FE02A8FEF704FE0621ADF8101002A975
:102380002046FEF76BFD01212046FFF754F801229D
:1023900011462046FEF71FFE01212046FEF701FEF2
:1023A0009DE710B586B001210420FEF7EAF901216E
:1023B0000220FEF7F1F98020ADF8140004208DF81A
:1023C000170003248DF8164005A94248FDF7D3FFF6
:1023D0004FF4A060FDF794FE1D208DF8040001204D
:1023E0008DF805008DF806408DF8070001A8FDF76F
:1023F0008CFE394C103C2046FEF71AFA4FF6FF715E
:10240000ADF80C100021ADF80810ADF80E10ADF8C5
:102410000A1002A92046FEF7F3FA00231A466021AB
:102420002046FEF707FE00212046FEF7DBFF0121D4
:102430002046FEF7B6FD06B010BD10B586B00121EE
:102440000820FEF79EF901210420FEF7A5F980205F
:10245000ADF8140004208DF8170003248DF8164001
:1024600005A91B48FDF787FF4FF4A060FDF748FE64
:102470001E208DF8040001208DF805008DF806401F
:102480008DF8070001A8FDF740FE144C103C2046D3
:10249000FEF7CEF94FF6FF71ADF80C100021ADF844
:1024A0000810ADF80E10ADF80A1002A92046FEF78C
:1024B000A7FA00231A4660212046FEF7BBFD002143
:1024C0002046FEF78FFF01212046FEF76AFDB2E7A6
:1024D000000C0140000801401004004010080040BA
:1024E00010B501F0ECFF28B14FF400518348FDF71F
:1024F000B3FFFEE782A001F0E4FA782001F0C5FC0A
:10250000002840D087A001F0DCFA782001F053FECB
:1025100000283CD08EA001F0D4FA642001F01CFF0A
:10252000002838D096A001F0CCFA03F037F9002843
:1025300035D09CA001F0C5FAA94803F037FF03F09D
:1025400035F900282FD0A7A001F0BBFA40F2731094
:1025500003F0F5FC00282AD0AEA001F0B2FA642006
:1025600003F0A8FA002826D0B6A001F0AAFA03F0DA
:102570002FFF012002F0B1FE002820D0BDE810405E
:10258000BBA001F09EBAC5A001F09BFABDE7CBA0AD
:1025900001F097FAC1E7D2A001F093FAC5E7DAA0FB
:1025A00001F08FFAC8E7E5A001F08BFACEE7EDA0C5
:1025B00001F087FAD3E7F4A001F083FAD7E7BDE88A
:1025C0001040FAA001F07DBA2DE9FF5F8448303851
:1025D000811C00F12003FE4ACDE90010283124308F
:1025E00003F0F8FD7E4E303E7088C0057ED5F84C75
:1025F000206804F036FA6FF01D08414604F09DF89B
:1026000005467060606804F02CFA414604F095F8C5
:102610000746B060A06804F024FA414604F08DF843
:102620008146F060E06804F01CFA414604F085F849
:10263000804630610121284604F07FF8494604F0C5
:102640000CF805464FF040442146384604F005F8A2
:10265000414604F002F8294603F0A7FF04F05AFAB5
:1026600005F0B8FBDFF86C834FF066373A46434617
:1026700004F016F904F061FA7061F0680121054672
:1026800004F05BF88246294603F0E7FF0546B06890
:102690002146814603F0E1FF494603F0DEFF29466B
:1026A00003F0D5FF4FF07E5103F07FFF04F032FAC4
:1026B00004460D460121706804F03FF8494603F0D6
:1026C000CCFF81465046316903F0C7FF494603F00D
:1026D0006CFF04F01FFA22462B4605F0C3FD3A4674
:1026E000434604F0DDF804F028FA00E0AFE1B06101
:1026F00031698946484603F0B0FF6DE100100140A2
:102700006D707520696E697469616C697A6174694C
:102710006F6E20636F6D706C6574652E2E2E2E2E7D
:102720002E0A20006D70755F7365745F73656E733C
:102730006F7220636F6D65206163726F73732065C4
:1027400072726F72202E2E2E2E2E2E0A0000000086
:102750006D70755F636F6E6669677572655F6669D8
:10276000666F20636F6D65206163726F73732065A0
:1027700072726F72202E2E2E2E2E2E0A0000000056
:102780006D70755F7365745F73616D706C655F729A
:10279000617465206572726F72202E2E2E2E2E2E81
:1027A0000A000000646D705F6C6F61645F6D6F7430
:1027B000696F6E5F6472697665725F6669726D7764
:1027C00061726520636F6D65206163726F73732042
:1027D0006572726F72202E2E2E2E2E2E0A00000091
:1027E00058000020646D705F7365745F6F72696577
:1027F0006E746174696F6E20636F6D6520616372C2
:102800006F7373206572726F72202E2E2E2E2E2EF5
:102810000A000000646D705F656E61626C655F66E2
:1028200065617475726520636F6D65206163726F99
:102830007373206572726F72202E2E2E2E2E2E0A2A
:1028400000000000646D705F7365745F6669666F99
:102850005F7261746520636F6D65206163726F7371
:1028600073206572726F72202E2E2E2E2E2E0A006D
:102870006D70755F7365745F646D705F73746174A0
:102880006520636F6D65206163726F73732065727D
:10289000726F72202E2E2E2E2E2E0A006D70755FF6
:1028A0007365745F73656E736F7220636F6D706CA8
:1028B000657465202E2E2E2E2E2E0A006D70755FEB
:1028C000636F6E6669677572655F6669666F2063C0
:1028D0006F6D706C657465202E2E2E2E2E2E0A00C4
:1028E0006D70755F7365745F73616D706C655F7239
:1028F00061746520636F6D706C657465202E2E2E7B
:102900002E2E2E0A00000000646D705F6C6F6164F3
:102910005F6D6F74696F6E5F6472697665725F6612
:1029200069726D7761726520636F6D706C65746537
:10293000202E2E2E2E2E2E0A00000000646D705FB9
:102940007365745F6F7269656E746174696F6E2010
:10295000636F6D706C657465202E2E2E2E2E2E0AE0
:1029600000000000646D705F656E61626C655F669B
:1029700065617475726520636F6D706C6574652038
:102980002E2E2E2E2E2E0A00646D705F7365745FDE
:102990006669666F5F7261746520636F6D706C65E8
:1029A0007465202E2E2E2E2E2E0A00006D70755F5F
:1029B0007365745F646D705F737461746520636FB9
:1029C0006D706C657465202E2E2E2E2E2E0A000042
:1029D000A401002066A64C40F16804460846039115
:1029E00003F03BFEB16805468A46504603F035FECB
:1029F000716883460846029103F02FFE594603F0A2
:102A0000D4FD294603F023FE214603F020FE04F006
:102A100081F804460D464946029803F01EFE8146A1
:102A20005046039903F019FE494603F0BEFD01210B
:102A300003F083FE04F06EF822462B4605F012FCEC
:102A40003A46434603F02CFF04F077F8F061BDE806
:102A5000FF9F00007047FEE7FEE7FEE7FEE77047D6
:102A6000704770472DE9F04117490878401C0870FD
:102A7000164C2078401C2070154D2878401C28707A
:102A800000F0BBF9134E3078401C307012480178CA
:102A9000491C017011480178491C017000F093F83D
:102AA00000F064F920780027022804D301F0CBF865
:102AB00000F0B1FA27702878082803D300F0C1F994
:102AC0002F703770BDE8F0816A0000206D01002092
:102AD0006B0000206C0000206B0100206C010020C6
:102AE0001A48C8210068B0FBF1F04FF0E021B0F1C6
:102AF000807F01D301200BE020F07F40401E486121
:102B0000134AF0201070002088610720086100201F
:102B100000B1FEE7086920F001000861704701B5C7
:102B20000C48009901604FF0E0210A6942F001026F
:102B30000A6101680029FCD108BD06480168002926
:102B400002D00168491E0160704700001400002097
:102B500023ED00E06400002042F6E06303E0194644
:102B6000491E89B2FCD2401E80B2F8D27047FF489D
:102B700000210181C18041670167C167816700F160
:102B800080021160C166916081650166816641665F
:102B90005160D16291621161D1608170C170017127
:102BA0000163704770B5F14C4FF08245F0486061A9
:102BB000F048A0612946E06903F0DCFF00D0E56140
:102BC000ED48206270BD70B5E84EE84C8036756AFD
:102BD000012D09D1706903F052FF0022E74B03F089
:102BE0005FFE03F0AAFF6061022D0AD1B069403890
:102BF00003F045FF0022E24B03F052FE03F09DFF7D
:102C0000A061E048B0F9040003F02BFF6064DE4EE1
:102C1000B6F9040003F025FFA064DC484FF400512E
:102C20000268DB4812F0FF4F05D0DA4B9A4202D817
:102C3000D94B9A4202DDFDF70FFC01E0FDF70AFCDB
:102C4000D6480568E566B6F9000003F00AFFA169F9
:102C500003F003FD06462846616903F0FEFC314699
:102C600003F0A3FC206670BD2DE9F04104460D463B
:102C7000CB4E4FF480474FF40048002C0ADA394617
:102C80003046FDF7E7FB41463046FDF7E5FB604285
:102C900004B207E041463046FDF7DCFB39463046DA
:102CA000FDF7DAFB4FF400574FF48058002D0ADA95
:102CB00039463046FDF7CEFB41463046FDF7CCFBAA
:102CC000684205B207E041463046FDF7C3FB39468E
:102CD0003046FDF7C1FBAEB2A1B24FF080452846A9
:102CE000FEF788FB31462846FEF786FBA7480126FB
:102CF00000270168AB489D4C814214DCAA48814200
:102D000001D9012100E0002198488030026912F0C9
:102D1000FF4F12D00022C068114010F0FF4F0ED0BC
:102D2000002001420DD000212846FEF763FB002160
:102D30002846FEF761FBE66204E00122EBE7012092
:102D4000EFE7E7629948E16E814202DC98488142F0
:102D50000AD900212846FEF74DFB00212846FEF740
:102D60004BFBE662BDE8F081E762FBE72DE9F04747
:102D70007E4CD4E9171003F018FC04F180010746DB
:102D800089680E4603F011FC0546606638463146F8
:102D900003F05DFC0746A066284603F08EFE00B2F5
:102DA00040F6B836DFF80C82B04201DDC4F864802A
:102DB000606E03F082FEDFF8009200B27F4D48455E
:102DC00000DA6566384603F078FE00B2B04201DDF5
:102DD000C4F86880A06E03F070FE00B2484500DAC7
:102DE000A566A06E03F069FE05B2606E03F065FE95
:102DF0002946BDE8F04700B236E72DE9F041704FB3
:102E00003846FEF70DFB0646DFF8B8814046FEF770
:102E100007FB0546554C6662A56200213846FEF761
:102E2000E1FA00214046FEF7DDFA31B2E180684266
:102E300000B22081226F11442167616F08446067EE
:102E400090E72DE9F041494ED6E91C01084403F012
:102E500008FE0446B067002777673767F06F03F016
:102E600059FE4FF06632584B03F01AFD03F065FE31
:102E70008046204603F04EFE4FF03332534B03F0B2
:102E80000FFD04460D46404603F044FE22462B4605
:102E900003F05FFC03F051FE0546F06706F1800485
:102EA0000146206803F081FB616803F07EFB316B13
:102EB00003F07BFB2060F06A012800D127602068C6
:102EC00003F0FBFD40F6B831884201DD394820604F
:102ED000206803F0F2FD40F6B831C84201DA374805
:102EE0002060676A032F0AD1E069803803F0C7FDCC
:102EF0000022374B03F0D4FC03F01FFEF061042FD7
:102F00000AD1206AC03803F0BAFD00221C4B03F03E
:102F1000C7FC03F012FE3062316A206803F09DFBAB
:102F200004462846F16903F098FB214603F03DFB77
:102F3000F06517E770B5274C08212046FEF71FFC07
:102F400030B108212046FEF721FC2046FEF7AEFBFB
:102F500020212046FEF713FC00285BD040F22551CB
:102F60002046FEF737FC1B48001D35E068000020B6
:102F7000CD4C3F433D0A573ECDCCCC3E0080FB3F7D
:102F80000000C43F520000204C0000203C00002004
:102F9000001001400000A0C10000A041400000203E
:102FA000000C014000002041000020C10000484208
:102FB000000048C200803B4548F4FFFF00803BC54D
:102FC00000040040000800406666E63F3333D33F0C
:102FD0000000DE3F004800400088C0B2012300220C
:102FE000FE49242801D14B700A654C78012C02D18E
:102FF000FB4C0D6D605505D1232803D10B704A7031
:10300000086D4865086D401C0865502802DB0A659C
:103010004A700A7070BD10B5F04CA06B002812D138
:10302000F048FEF7FDF9AA21484303F039FD0022DC
:10303000ED4B03F0A7FC03F080FD6063B0F1814F1E
:1030400002DCEA48206310BDE949401AB0F5C00F20
:1030500002D8E848206310BD0020206310BD2DE990
:10306000F047DE4EF06B01287DD1D6F86480B56E56
:10307000E148B0F90200E149B1F90070746B03F066
:10308000F0FC6FF00D0103F058FBDD4903F0E5FAA9
:103090007064384603F0E5FCDA4903F0D8FADA49FF
:1030A00003F00DFBB064404603F034FDD74FDFF86A
:1030B00060833A46434603F065FC03F03EFD8146DB
:1030C000284603F027FD3A46434603F05BFC03F035
:1030D00034FD0546C2485021A03003F03BFAC048F9
:1030E000CCA1803009680162E830002101604160B4
:1030F0000181C0F80A10C0F80E104182416181615F
:1031000081831E30016041600181C0F80A10C0F85F
:103110000E104182416181618183DFF8FC82C145EB
:1031200021DCBE4FB9451ED8484603F0F3FC0246E9
:103130000B46BBA1BC4804F03BF9454513DCBD423E
:1031400011D8284603F0E6FC0246B7480B46B4A166
:103150000A3004F02DF9B549706C884203D2B44DA1
:10316000A84200DA00E08AE003F0D4FC0246AE4850
:103170000B46ABA1143004F01BF9AE49B06C884289
:103180007DD2AD4988427ADA03F0C4FC0246A648F3
:103190000B46A3A11E3004F00BF9A84FBC427AD213
:1031A000A748844277DA204603F0B4FC02469E48E2
:1031B0000B469BA1283004F0FBF8002000F098FD9E
:1031C00003F058FC9F4903F048FA6FF00B0103F03D
:1031D000B4FA9D4903F03BFA3061B8425BD2A84291
:1031E00059DA03F097FC02468F480B468CA1323027
:1031F00004F0DEF88C49A1F1C80003F0B6F9784874
:1032000092A1A03003F0B1F987490A31A1F1D200AF
:1032100003F0ABF972488EA1A03003F0A6F9824901
:103220001431A1F1DC0003F0A0F96D4889A1A030B0
:1032300003F09BF97C491E31A1F1E60003F095F9FA
:10324000674885A1A03003F090F977492831A1F1B2
:10325000F00003F08AF9624881A1A03003F085F9FB
:1032600071493231A1F1FA0003F07FF95C487DA188
:10327000A03003F07AF96C485021783800E00AE079
:1032800003F068F9BDE8F04755495022A03101F13B
:10329000500003F046B9BDE8F08710B54F4C206CE4
:1032A000401E2064E16B012906D128B9FFF7D7FE43
:1032B0005D48783800F0FBFB206C002802D141F219
:1032C0008830206410BD30B50346002014E00C782F
:1032D000A24210D1002205E0521C85188C5C5D5D75
:1032E000AC4205D18C5C1CB184181C5D002CF3D160
:1032F0008A5C002A04D0401C1A5C002AE7D1501EC8
:1033000030BD70B5354D00212846EA680126C06CF5
:1033100005F18004072A27D2DFE802F00409160E1F
:10332000121B210061602963A160A96370BDA160C7
:103330004D486060AE6370BD2C48A060AE6370BD48
:103340004A48A060AE6370BDA16049486060AE634A
:1033500070BD404203F085FBA060AE6370BD03F01A
:1033600080FBA060AE6370BD616070BD70B51B482E
:103370003221D13003F0EEF818483EA180300968C0
:10338000C0F85110154C2D4E6069B04276D23A4DBE
:10339000A84273DC03F0BEFB024623480B4620A183
:1033A000283804F005F8A069B04268D2A84266DC6B
:1033B00003F0B0FB02461C480B4619A11E3803F06F
:1033C000F7FFE069B0427DD2A8427BDC03F0A2FBAC
:1033D000024615480B4612A1143851E0680000203F
:1033E000B4010020002C014000006940000096C399
:1033F0000000A0400000FA43520000204C000020D2
:10340000CDCC1C419A1900430000034348E17A14D3
:10341000AE470F40244C560000007A4400007AC4A6
:1034200025332E32660000001C0300200000A0C1DE
:103430000000A04100803BC500803B45000080802B
:1034400000401C46CDCC5441CDCC4C3E2C525600B5
:103450002C4143002C4759002C43534200000000EC
:103460002C565400230000000000484400009643FE
:10347000000048C4244150000000C84244E048E035
:1034800003F096FF206AB0424DD2A8424BDC03F015
:1034900041FB02460B46AFF27801C34803F088FFB8
:1034A000C14904F1D1001E3903F05FF8BFA104F156
:1034B000D10003F05AF8BC4904F1D100143903F0EB
:1034C00054F800E02AE0BAA104F1D10003F04DF86D
:1034D000B54904F1D1000A3903F047F8B5A104F168
:1034E000D10003F042F8B04904F1D10003F03DF8F7
:1034F000AFF2900104F1D10003F037F804F1D100EC
:10350000BDE8704000F0D3BABDE87040AAA000F05A
:10351000CEBABDE87040A8A000F0C9BABDE87040BE
:10352000A5A000F0C4BABDE87040A3A000F0BFBAE7
:1035300010B5A548A549026D01F15000521C02F0DA
:10354000F0FFBDE810405021A04803F003B82DE97A
:10355000F0478AB0DFF87482012508F1500800278F
:1035600098F80100984C3038052825D2DFE800F0A3
:103570001E0309101700E5609348B03000F097FA79
:103580001BE00220E0609048B03000F090FA14E0B8
:103590000320E0608C48B03000F089FA0DE0042090
:1035A000E0608948B03000F082FA06E0E7608648C3
:1035B000B03000F07CFA00E0E7608448503002F060
:1035C000E0FF15280BD2277080485021503002F0C0
:1035D000C1FF0AB07EA0BDE8F04700F068BA98F8D5
:1035E0000300312805D10520E0607748B03000F0B5
:1035F0005EFA98F80300322805D10620E060724890
:10360000B03000F054FA98F80500312802D0322882
:1036100003D007E0FFF7AAFE04E0FFF7C3FA71A0AA
:1036200000F045FA98F80700312802D0322805D07A
:1036300008E0E5636BA000F03AFA03E0E76369A0F5
:1036400000F035FA98F8090031284ED1142105A868
:1036500002F080FF03970497019702975B4863A1EC
:103660005030FFF730FE0646701C7DD0606D08EBD1
:103670000609821B494605A802F053FF5CA105A874
:10368000FFF721FE0546681C6ED0AA1E0DF1140A34
:103690000DF1160103A802F044FF03A804F0A2FEF6
:1036A00003F04BFA6061142105A802F053FF616D2D
:1036B00070190A1A09EB0501491C05A802F031FF2F
:1036C0004BA105A8FFF7FFFD411C6BD0821E0AF13C
:1036D000020101A802F025FF01A804F083FE03F017
:1036E0002CFAA0613FA000F0E2F998F80B00312815
:1036F0004FD1142105A802F02DFF039704970197DD
:10370000029732483BA15030FFF7DDFD0646701CA2
:1037100048D0606DB044821B414605A802F001FF0D
:1037200033A105A8FFF7CFFD0546681C3AD0AA1EB5
:103730000DF114090DF1160103A802F0F2FE03A821
:1037400004F050FE03F0F9F9E061142105A802F03D
:1037500001FF616D70190A1A08EB0501491C05A8E3
:1037600002F0DFFE17A100E01CE005A8FFF7ABFDAB
:10377000411C17D0821E09F1020101A802F0D1FEFE
:1037800001A804F02FFE03F0D8F9206215A000F084
:103790008EF927700AB00D48BDE8F047502150302F
:1037A00002F0D8BE0AB076E5120300202C41440096
:1037B0002C5650002C564900244765745049444506
:1037C00072726F722300000068000020B4010020B4
:1037D00024526563656976655061636B4572726FEB
:1037E00072230000244F4B230000000041500000D2
:1037F0002C0000005650000010B586B0012144F2A4
:103800000400FCF7BEFF4FF40070ADF81400182060
:103810008DF8170003208DF81600AF4C05A920463F
:10382000FCF7A9FD2115ADF8141004218DF817102F
:1038300005A92046FCF79FFD4FF4E13001900020E0
:10384000ADF80800ADF80A00ADF80C00ADF81000B6
:103850000C20ADF80E00A14C01A92046FDF746FE54
:1038600001212046FDF7BDFE06B010BD08B54FF49E
:103870008060FCF745FC27208DF8000004208DF8BF
:10388000010001208DF802008DF803006846FCF766
:103890003CFC08BD10B586B001218804FCF77CFF14
:1038A00001210820FCF76DFF4FF48060ADF8140093
:1038B00018208DF8170003208DF81600884C05A9F4
:1038C0002046FCF758FDE114ADF8141004218DF8E2
:1038D000171005A92046FCF74EFDFFF7C7FF4FF470
:1038E000165001900020ADF80800ADF80A00ADF8C0
:1038F0000C00ADF810000C20ADF80E00794C01A9B9
:103900002046FDF7F3FD012240F225512046FDF748
:1039100074FE01212046FDF764FEA5E770B504465C
:103920006E4DE1B22846FDF7BDFE40212846FDF769
:1039300026FF0128F9D1204670BDF0B503460025C9
:10394000084600260A2A01D00670F0BD002B1DD0C3
:1039500005DA4FF02D0200F8012BC3F1000342F20B
:1039600010724FF00A0793FBF2F454EA050C06D0EC
:1039700004F1300500F8015B04FB1233012592FBD2
:10398000F7F2002AEFDC06700846F0BD3022027024
:1039900046700846F0BD0FB430B585B005460AA89C
:1039A00000900EE05C2914D025292CD0521C28460A
:1039B0000992FDF777FE40212846FDF7E0FE00283A
:1039C000F9D0099A11780029ECD105B030BC5DF826
:1039D00014FB521C099210786E280CD0722802D069
:1039E000521C0992E7E70D212846FDF75BFE099876
:1039F000401C0990DFE70A212846FDF753FE09988D
:103A0000401C0990D7E7521C09921078642819D0FD
:103A1000732802D0521C0992CDE7009810C800907C
:103A200009E02846FDF73EFE40212846FDF7A7FEA7
:103A30000028F9D0641C21780029F2D10998401C93
:103A40000990B8E7009808C800900A2201A9184612
:103A5000FFF773FF01AC09E02846FDF723FE402184
:103A60002846FDF78CFE0028F9D0641C2178002937
:103A7000F2D10998401C09909DE710B5174C0146FA
:103A80002046FDF70FFE40212046FDF778FE012875
:103A9000F9D110BD10B5134C01462046FDF702FECA
:103AA00040212046FDF76BFE0128F9D110BD10B56D
:103AB000044602E0FFF7EEFF641C20780028F9D1ED
:103AC00010BD10B5044602E0FFF7D7FF641C207854
:103AD0000028F9D110BD0000000801400038014065
:103AE000000C0140004800407FB50121C802FCF7EE
:103AF00048FE41F28830ADF8080041F61F40ADF8AD
:103B000004000124ADF80A400025ADF80650134E1C
:103B100001A93046FCF774FF012241213046FDF730
:103B20005AFA19208DF8000003208DF801008DF855
:103B300002508DF803406846FCF7E7FA7FBD10B5E8
:103B4000064C01212046FDF779FC002805D02046CF
:103B5000BDE810400121FDF77DBC10BD002C0140E7
:103B60002DE9FF4101213F48FCF796FC0121092086
:103B7000FCF707FE0124ADF80C4010208DF80F0073
:103B800003268DF80E60384F03A93846FCF7F3FB87
:103B90000225ADF80C5028218DF80F1003A93846E6
:103BA000FCF7E9FB01210846FCF7A1FC0195002088
:103BB0008DF8080008208DF809008DF80A4001A84A
:103BC000FCF708FB07208DF800008DF801608DF8E8
:103BD00002408DF803406846FCF797FABDE8FF8184
:103BE0002DE9F0410220FCF746FB002829D01F4EAA
:103BF00000213046FDF7F6FB01213046FDF7D1F9F3
:103C00001B4C01212160184F00253046FDF708FCB0
:103C10000A2805D300213046FDF7C3F9256004E0EA
:103C200002213846FCF702FC206020680028ECD115
:103C300000213046FDF7B5F9BDE8F0410220FCF760
:103C400028BBBDE8F08110B5074C01212046FCF7E8
:103C500001FC0C20FEF74EF82046BDE81040012183
:103C6000FCF7FABB00023000000C0140002C0140C0
:103C70007001002070B586B001214FF40170FCF78F
:103C800080FD4FF40040FCF7FFFC0125ADF800502B
:103C900000248DF8034069462148FCF76CFB214E57
:103CA0003046FDF7A9FD01948DF808408DF80940D4
:103CB0004FF46020039004948DF8145001A930460D
:103CC000FDF7C6FD01213046FDF7EAFD3046FDF760
:103CD0000AFE3046FDF70CFE0028FAD13046FDF70B
:103CE0000EFE3046FDF710FE0028FAD106B070BD7A
:103CF00010B50C4C0146072301222046FDF732FE89
:103D000001212046FDF707FE02212046FDF710FFA6
:103D10000028F9D02046BDE81040FDF769BE00003C
:103D2000000801400024014006488047064800473B
:103D3000FEE7FEE7FEE7FEE7FEE7FEE7FEE7FEE75B
:103D4000FEE7FEE7291C0008ED000008F8B5FD4C71
:103D50000023224694F8246006CA5D1E002E11D06E
:103D600010B10220009000E000931078C97B6B46F0
:103D70000122FEF7E2F808B12846F8BD9DF80000E0
:103D8000607419E0A67A26B128B1667C1EB10020C5
:103D9000F8BD2846F8BD10B10120009000E0009366
:103DA0001078C97B6B460122FEF7C7F808B1284698
:103DB000F8BD9DF8000060740020F8BD38B50024FF
:103DC000E04D12E02868C27AA2420CD0407DA042A9
:103DD00009D008786B4601222146FEF7F0F810B1B1
:103DE0004FF0FF3038BD641CE4B269680879A04226
:103DF000E8D8002038BD30B40B46D24A4FF0FF352A
:103E00001168CC7A844202D0497D814202D1284691
:103E100030BC704751680A79824201D82846F7E7DA
:103E20000C780146204630BC0122FEF7C8B838B5F0
:103E30000446C44D95F82300A04201D1002038BDAE
:103E400014B13020009001E000200090A87C20B147
:103E50009DF8000040F00200009095F8220020B18B
:103E60009DF8000040F08000009028686B46012219
:103E7000017D68680078FEF760F810B14FF0FF3000
:103E800038BD85F82340002038BDF8B5044614F04D
:103E9000700F4FF0000602D00120009004E00CB13A
:103EA000009601E040200090A64D6B460122286854
:103EB000817C68680078FEF740F84FF0FF3710B15A
:103EC000AE723846F8BD9DF8000020F0400028731F
:103ED0000096600601D404200090A00604D49DF84A
:103EE000000040F002000090E00604D49DF80000BD
:103EF00040F001000090200704D49DF8000040F03D
:103F00003800009028686B460122C17C6868007800
:103F1000FEF713F810B1AE723846F8BD24B1082C84
:103F200002D00020FFF783FFAC722E753220FDF720
:103F3000EBFE0020F8BDF8B50446824DA87CA042F7
:103F400001D10020F8BD7F484FF0FF36D0E90010C6
:103F5000ACB3097900786B460122FEF730F808B15E
:103F60003046F8BD9DF8000020F020000090286841
:103F70006B460122017968680078FDF7DEFF08B121
:103F80003046F8BD0320FDF7BFFE0220009095F8F3
:103F9000220008B18220009095F8230020B19DF8FE
:103FA000000040F03000009028686B460122017D3F
:103FB00068680078FDF7C1FFF0B33046F8BDFFE751
:103FC000097900786B460122FDF7F9FF08B1304608
:103FD000F4E7A87AC00705D09DF8000040F0200063
:103FE000009004E09DF8000020F020000090286878
:103FF0006B460122017968680078FDF79EFF08B1E1
:104000003046DBE70320FDF77FFE95F8220010B174
:104010008020009001E00020009095F8230020B15E
:104020009DF8000040F03000009028686B460122A7
:10403000017D6868007800E004E0FDF77EFF08B1CC
:104040003046BBE7AC740020B8E7F8B53D4D4FF003
:10405000FF36A87A00280CD00024009428686B460C
:104060000122C17B68680078FDF767FF18B1304610
:10407000A4E73046A2E728686B46012241796868C8
:104080000078FDF75AFF08B1304697E728686B467D
:104090000122017968680078FDF74FFF08B13046CA
:1040A0008CE795F8240090B30C20009028686B46AC
:1040B0000122017968680078FDF73FFF08B13046BA
:1040C0007CE73220FDF720FEC0200090A87AC007D0
:1040D00001D0E020009028686B46012201796868D1
:1040E0000078FDF72AFF08B1304667E7687C10B119
:1040F0000220009000E0009428686B460122C17BFA
:1041000068680078FDF719FF10B1304656E70BE0FC
:10411000009428686B460122417968680078FDF7B1
:104120000CFF70B3304649E70420009028686B46C6
:104130000122017968680078FDF7FFFE20B1304662
:104140003CE7000074010020A87C78B9A87AC00779
:104150000CD06020009028686B46012201796868C5
:104160000078FDF7EAFE20B1304627E740200090B6
:10417000F1E73220FDF7C8FD687C18B101200090FE
:1041800001E016E0009428686B460122C17B686854
:104190000078FDF7D2FE08B130460FE72868417974
:1041A00068680078FE4B0122FDF7C7FE08B1304673
:1041B00004E7002002E72DE9F041002620F0010489
:1041C000F74D103D95F82400002802D00020BDE8EE
:1041D000F081A97A4FF0FF3839B12F7C2140297442
:1041E000A14200D0464624B901E04046EFE7287DD1
:1041F00018B10120FFF7AAFD02E00020FFF7A6FD9D
:104200002CB1FFF722FF10B12F744046DFE7304694
:10421000DDE738B5E24C4FF0FF35103CA17A0029BC
:1042200004D0BC2804D30120009017E0284638BDF4
:10423000622802D30220009010E02A2802D3032033
:1042400000900BE0142802D30420009006E00A2816
:1042500002D30520009001E006200090E07A9DF84E
:104260000010884201D1002038BD20686B46012231
:10427000817860680078FDF760FE08B1284638BD97
:104280009DF80000E072002038BD2DE9F843044697
:104290004FF0FF37282C02D93846BDE8F883C04DCF
:1042A00000264FF00709103D8CB10120FFF7BFFD3C
:1042B00020208DF800004FF00108012C1CD0052CA7
:1042C00020D88DF801800520FFF7A3FF29E000200A
:1042D000FFF7ADFD8DF800608DF8019028686B4602
:1042E0000222817C68680078FDF727FE08B1384615
:1042F000D3E72E750020D0E78DF801600520FFF789
:1043000088FF0EE0142C06D802208DF801000A2048
:10431000FFF77FFF05E003208DF801001420FFF771
:1043200078FF9DF8010009EB80108DF801002868E6
:104330006B460222817C68680078FDF7FEFD08B1BB
:104340003846AAE70820A8722E7385F8148000204A
:10435000FFF731FF0020A0E7F8B50446904D4FF07D
:10436000FF37103DA87A002804D095F8240018B132
:10437000384623E6384621E6287D50B134B1282C52
:1043800004D8E0B2FFF781FF002017E60020FFF716
:104390007CFF4FF47A76042C01D2042402E0B4426C
:1043A00000D93446B6FBF4F0401E009028686B46F6
:1043B0000122417868680078FDF7BFFD08B13846F2
:1043C000FCE59DF80000401CB6FBF0F0E8814008D9
:1043D000FFF71FFF0020F1E538B5714C4FF0FF35B6
:1043E000103CA17A002909D0022809D004280AD05B
:1043F00008280BD010280CD0284638BD284638BDD8
:104400000020009007E00820009004E010200090B9
:1044100001E018200090607A9DF80010B0EBD10FF9
:1044200001D1002038BD20686B460122C179606847
:104430000078FDF782FD08B1284638BD9DF80000E0
:10444000C0086072002038BD38B5554C4FF0FF35BC
:10445000103CA17A00290CD0FA280CD0B0F5FA7FD4
:104460000CD0B0F57A7F0CD0B0F5FA6F0CD028469E
:1044700038BD284638BD0020009007E00820009095
:1044800004E01020009001E018200090207A9DF8B0
:104490000010B0EBD10F01D1002038BD20686B4671
:1044A0000122817960680078FDF747FD08B1284650
:1044B00038BD9DF80000C0082072002038BD2DE9ED
:1044C000FC4180208DF80000354C6B46103C0122E9
:1044D0002068817C60680078FDF72FFD4FF0FF3683
:1044E00010B13046BDE8FC816420FDF70DFC0025CD
:1044F0008DF8005020686B460122817C606800784E
:10450000FDF71BFD08B13046ECE720686B4606223C
:10451000817D60680078FDF752FD08B13046E1E723
:104520009DF805009DF80310C007400F01F0010140
:1045300040EA41019DF8010000F00100014301271C
:1045400061B1012906D0022906D016A0FFF7B9FAF9
:104550003046C7E7E77414E0E57412E020686B4664
:104560000122C17860680078FDF729FD08B1304666
:10457000B8E79DF8000000F00F0038B304283CD0E5
:10458000E574FF2104F80A1F04F8021C04F8011C5A
:1045900061704FF6FF70A080A1712172A77016E0C4
:1045A00084010020556E737570706F72746564209D
:1045B000736F6674776172652070726F647563746F
:1045C000207265762025642E0A00000010E0277610
:1045D0006576E572A572E56025616561A576E5768B
:1045E000A5834FF4FA60FFF72FFF58B1304679E703
:1045F000F748FFF766FA304674E7F6A0FFF761FA6E
:10460000E774BEE70220FFF7E7FE08B1304669E72E
:104610002A20FFF7FEFD08B1304663E73220FFF79E
:104620009BFE08B130465DE70020FFF7C4FD08B1EE
:10463000304657E70020FFF77EFC08B1304651E7CF
:104640000020FFF722FC00204CE77CB504460E4614
:10465000E8484FF0FF35817A11F0700F0AD00168F9
:1046600040686B46097B00780622FDF7A8FC18B16C
:1046700028467CBD28467CBD9DF801009DF80010B1
:1046800040EA012020809DF803009DF8021040EAD6
:10469000012060809DF805009DF8041040EA01208B
:1046A000A08016B13046FDF73BFB00207CBD7CB5F9
:1046B00004460E46CF484FF0FF35817A090701D4F2
:1046C00028467CBD016840686B46497B007806221D
:1046D000FDF775FC08B128467CBD9DF801009DF8EA
:1046E000001040EA012020809DF803009DF8021090
:1046F00040EA012060809DF805009DF8041040EA22
:104700000120A08016B13046FDF70AFB00207CBDD9
:10471000F8B505460F46B74C4FF0FF36A07A002893
:104720000AD020686B460222817B60680078FDF722
:1047300046FC18B1304641E430463FE49DF80100A4
:104740009DF8001040EA012006B217B13846FDF787
:10475000E7FA6468E08802F08DF90746B4F90800CA
:1047600002F07FF90446304602F07BF9214601F061
:104770006EFF394601F0A3FF9F4901F016FF10219B
:1047800001F0DBFF02F099F92860002016E42DE922
:10479000F04188B004464FF0FF36002C02D020686C
:1047A00018B106E0304608B011E5606808B9A068A5
:1047B00050B1904D032206AB686811460078FDF7B2
:1047C000FEFB18B13046EEE70020ECE79DF818102C
:1047D000082000EB111101F00F02ADF800209DF848
:1047E000191000EB111101F00F01ADF802109DF846
:1047F0001A3000EB131000F00F00ADF8040023682E
:104800005B00403293FBF2F20FFA82F8ADF81080B1
:1048100062685200403192FBF1F10FB2ADF81270B4
:10482000A1684900403091FBF0F004B2ADF81440AB
:104830006868062206AB00781146FDF7C0FB08B198
:104840003046B0E79DF819009DF8181040EA0120A5
:10485000ADF808009DF81B109DF81A2041EA0222CD
:10486000ADF80A209DF81D109DF81C3041EA032187
:10487000ADF80C104044ADF810003A44ADF81220E9
:104880002144ADF81410030A8DF818308DF8190082
:10489000100A8DF81A008DF81B20080A8DF81C00EC
:1048A0008DF81D106868062206AB00781146FDF7EA
:1048B00044FB08B1304676E7002074E74D49097A99
:1048C000002909D001290AD002290CD003290ED0D1
:1048D0000021018000207047FA210180FAE74FF49F
:1048E000FA710180F6E74FF47A710180F2E74FF434
:1048F000FA610180EEE73F4A517A002908D0012988
:1049000009D002290AD003290BD04FF0FF3070479D
:104910000221017007E00421017004E00821017008
:1049200001E010210170D17C11B1017849000170C2
:10493000002070472F49C97A072917D2DFE801F014
:104940001604070A0D101300BC21018010E062213B
:1049500001800DE02A2101800AE01421018007E096
:104960000A21018004E00521018001E0002101808D
:10497000002070471F4991F82420002A02D04FF0F0
:10498000FF307047C98901800020704700210180F5
:10499000481E70474FF0FF3070471649097A0029CA
:1049A00008D0012909D002290AD003290BD04FF0E1
:1049B000FF3070471149016007E01149016004E0D0
:1049C0001049016001E010490160002070470000BB
:1049D000D891000848616C662073656E73697469CC
:1049E00076697479207061727420666F756E642EBA
:1049F0000A0000007401002000000C420000034384
:104A0000000083423333034233338341F94A517AFE
:104A1000002908D001290AD002290CD003290ED080
:104A20004FF0FF3070474FF4804101800AE041F6BB
:104A30009C71018006E04FF48051018002E04FF448
:104A400000610180D17C11B10188490801800020FA
:104A50007047E849097C017000207047E549897A70
:104A6000002902D00121017001E000210170002025
:104A7000704738B50546DF484FF0FF34817A00298A
:104A80000AD0016840686B46097C00780222FDF775
:104A900096FA18B1204638BD204638BD9DF8010071
:104AA0009DF8001040EA01202880002038BD2DE943
:104AB000FF4F83B0074688461E4600250024DFF8D6
:104AC00034A34FF0FF399AF82400002803D0484659
:104AD00007B0BDE8F08F002030709AF80A00F0B1FE
:104AE0009AF81020EAB1500600D50225900601D5AB
:104AF000AD1CEDB2D00601D5AD1CEDB2100701D54D
:104B0000AD1DEDB2DAF800006B460222817ADAF8C8
:104B100004000078FDF753FA28B14846D8E7484624
:104B2000D6E74846D4E79DF801009DF8001040EA1A
:104B3000012BAB4501D20020CAE7DAF80400418816
:104B4000BBEB510F13D9DAF8001000786B46497CA3
:104B50000122FDF734FA08B14846B9E79DF8000094
:104B6000C00604D5FFF771FA6FF00100B0E70598B1
:104B7000FDF7D6F8DAF800006B462A46C17ADAF873
:104B800004000078FDF71BFA08B14846A0E7BBFB1C
:104B9000F5F01099401E087000203070684605B38B
:104BA0009AF8101009071CD59DF801109DF80020F7
:104BB00041EA0221A8F800109DF803109DF8022098
:104BC00041EA0221A8F802109DF805109DF8042082
:104BD00041EA0221A8F80410317841F0080131704F
:104BE0000624AC420FD09AF8101049060BD50119D3
:104BF000025D497841EA02213980317841F0400173
:104C00003170A41CA4B2AC420FD09AF810108906DF
:104C10000BD50119025D497841EA0221798031788A
:104C200041F020013170A41CA4B2AC420DD09AF81E
:104C30001010C90609D50119005D497841EA002024
:104C4000B880307840F010003070002040E72DE947
:104C5000F843054689461746664E4FF0FF3896F8EA
:104C6000240000280DD0B07A68B130686B4602226B
:104C7000817A70680078FDF7A2F930B14046BDE84E
:104C8000F8834046FBE74046F9E79DF801009DF8B0
:104C9000001040EA0124AC4203D2002038704046A4
:104CA000EDE770684188B4EB510F12D93168007894
:104CB0006B46497C0122FDF782F908B14046DEE7E8
:104CC0009DF80000C00604D5FFF7BFF96FF00100A2
:104CD000D5E73068EAB24B46C17A70680078FDF7D4
:104CE0006EF908B14046CAE7B4FBF5F0401E3870D3
:104CF0000020C4E73F4981F82200002070472DE9D9
:104D0000FC4105463B4801AB042240680D21007878
:104D1000FDF755F908B107201BE49DF807009DF841
:104D20000420C0F3011102F0E00241EAD2018DF843
:104D300000109DF80520C0F3810102F0E00241EA75
:104D4000D2018DF801109DF8061000F0030001F06B
:104D5000E00140EAD1008DF8020000246E46305D8B
:104D600020B1254845F82400244F0AE0002045F8EA
:104D700024000CE055F82400394601F06EFC45F89B
:104D80002400305D401E10F0FF003055F2D1641C4D
:104D9000E4B2032CE3D3002029E42DE9FE4F0746BB
:104DA000884600256846FFF7AAFF00246FF00F0A27
:104DB000E946012657F8240058F82410401A00D577
:104DC000404201F04EFE514601F0B7FC59F8241064
:104DD00011F0FF4F16D001F072FC4FF07E5101F040
:104DE00036FC074920F00040884213DD06FA04F043
:104DF00005430FE0740100207B14AE3E1D5A843F32
:104E0000295C0F3EFE490844FE49884202D306FA57
:104E100004F00543641C032CCCDB2846BDE8FE8F60
:104E20002DE9F84F81468A460025F7486B46032254
:104E300040680D210078FDF7C2F810B10720BDE8E9
:104E4000F88F9DF8000000F01F008DF800009DF81D
:104E5000010000F01F008DF801009DF8020000F035
:104E60001F008DF8020000246F464FF0010859F82A
:104E700024005AF82410401A00D5404201F0F1FDF8
:104E80006FF00F0101F059FC0646385DF8B1DF4ABA
:104E9000DFF87CB304E05946104601F0DEFB024621
:104EA000385D401E10F0FF003855F4D111463046F1
:104EB00001F005FC4FF07E5101F0C9FBD54920F00F
:104EC000004088420BDD08FA04F0054307E0D248B1
:104ED0003044B0F1D97F02D908FA04F00543641CCC
:104EE000032CC4DB2846AAE72DE9F04788B0054625
:104EF0000C46924601208DF8140000278DF815709D
:104F0000DFF8048305AB0222D8F80000817CD8F8D2
:104F100004000078FDF711F84FF0FF3918B148464A
:104F200008B0BDE8F087C820FCF7EEFE8DF81470DD
:104F3000D8F8000005AB0122C17BD8F80400007846
:104F4000FCF7FBFF08B14846EAE7D8F8000005ABDC
:104F500001224179D8F804000078FCF7EEFF08B18F
:104F60004846DDE7D8F8000005AB0122817CD8F87F
:104F700004000078FCF7E1FF08B14846D0E7D8F814
:104F8000000005AB0122C17DD8F804000078FCF7D1
:104F9000D4FF08B14846C3E7D8F8000005AB0122AA
:104FA0000179D8F804000078FCF7C7FF08B148463B
:104FB000B6E70C268DF81460D8F8000005AB012286
:104FC0000179D8F804000078FCF7B7FF08B148462B
:104FD000A6E70F20FCF798FED8F82800407A8DF855
:104FE0001400D8F8000005AB01228178D8F804003D
:104FF0000078FCF7A2FF08B1484691E7D8F82800EE
:10500000007A8DF81400D8F8000005AB0122417831
:10501000D8F804000078FCF790FF08B148467FE715
:10502000BAF1000F07D0D8F82800807A40F0E000ED
:105030008DF8140004E0D8F82800807A8DF8140068
:10504000D8F8000005AB01228179D8F80400007877
:10505000FCF773FF08B1484662E7BAF1000F07D0CA
:10506000D8F82800C07A40F0E0008DF8140002E083
:1050700018208DF81400D8F8000005AB0122C17982
:10508000D8F804000078FCF758FF08B1484647E715
:10509000BAF1000F02D0C820FCF736FE40208DF890
:1050A0001400D8F8000005AB01220179D8F80400FB
:1050B0000078FCF742FF08B1484631E778208DF8C8
:1050C0001400D8F8000005AB01224179D8F804009B
:1050D0000078FCF732FF08B1484621E73220FCF7A0
:1050E00013FE8DF81470D8F8000005AB0122417949
:1050F000D8F804000078FCF720FF08B148460FE715
:10510000D8F8000005AB0222817AD8F804000078B4
:10511000FCF755FF08B1484602E79DF815009DF8D9
:10512000141040EA0120B0FBF6F0C6B2AF606F6029
:105130002F60A76067602760002756E0D8F800005E
:1051400005AB0C22C17AD8F804000078FCF737FFD1
:1051500008B14846E4E69DF815009DF8141040EAB1
:10516000012002B2ADF80C209DF817009DF8161032
:1051700040EA012000B2ADF80E009DF819109DF82C
:10518000183041EA032109B2ADF8101023681A441F
:105190002260626810446060A0680844A0609DF8C6
:1051A0001B009DF81A1040EA012000B2ADF804007F
:1051B0009DF81D109DF81C2041EA022109B2ADF8AE
:1051C00006109DF81F209DF81E3042EA032212B2FD
:1051D000ADF808202B6818442860686808446860A7
:1051E000A8681044A8607F1CFFB2B742A6D3286805
:1051F0008322C117090441EA1041000400230DE095
:10520000666666C19A99D900740100200000C84101
:1052100054E3853F295C0F3E0000E0BE01F050F9E9
:105220003246002301F04CF9286068688322C117D8
:10523000090441EA10410004002301F041F932461B
:10524000002301F03DF96860A8688322C1170904B2
:1052500041EA10410004002301F032F932460023F4
:1052600001F02EF9A86020684FF40065C117090409
:1052700041EA104100042A46002301F021F9324698
:10528000002301F01DF9206060682A46C117090457
:1052900041EA10410004002301F012F932460023D4
:1052A00001F00EF96060A0682A46C117090441EABE
:1052B00010410004002301F003F93246002301F0FD
:1052C000FFF8A060002803DDA0F58030A06002E0B8
:1052D00000F58030A060002022E638B5FE4C94F83E
:1052E0002410814201D1002038BD0025F0B194F88E
:1052F0002500C0B10020FEF729FD0020FEF71BFEAF
:10530000E08CFFF729F8009560686B460122007871
:105310002321FCF712FE012084F82400FEF716FD7D
:10532000FEF793FE12E04FF0FF3038BD0020FEF78D
:105330000DFD207C009060686B46012200782321DF
:10534000FCF7FBFD84F82450FEF77FFE002038BDFB
:105350002DE9F0438BB081468846DF4D95F8240057
:10536000002804D00020FFF7B8FF012600E0002647
:1053700002A8FFF7A3FA04A8FFF7BDFA6846FFF7F3
:10538000D9FA01A8FFF7F6FAAF7A03A8FFF761FB95
:105390000024002241464846FFF7A6FD10B1641CD8
:1053A000022CF6DB022C19D00024012205A908A842
:1053B000FFF79AFD10B1641C022CF6DB022C0FD013
:1053C00005A94046FFF7E9FC00F0FF0808A9484698
:1053D000FFF726FDC0B2002420B104E0002407E05E
:1053E000002405E00124B8F1000F01D144F00204CB
:1053F000FF2028726872E8724FF6FF71E981A87287
:10540000287401202873BDF80800FFF71DF89DF8E7
:105410001000FEF7E1FFBDF80000FEF7FAFEBDF850
:105420000400FEF799FF3846FEF72FFD9DF80C00AB
:10543000FEF7C1FE16B10120FFF74FFF0BB020466B
:10544000BDE8F0832DE9F8430E4690464FF0FF3556
:10545000B8F1000F0FD0A04FB97A71B1010A8DF8E1
:105460000010C4B28DF80140A0197C68618988429F
:1054700005D9284603E4284604E4284604E43868AD
:105480006B460222017E2078FCF757FD08B12846C2
:1054900006E43868F2B24346417D78680078FCF74C
:1054A0004CFD08B128460AE4002008E42DE9F84341
:1054B0000E4690464FF0FF35B8F1000F0FD0864FE3
:1054C000B97A71B1010A8DF80010C4B28DF80140AB
:1054D000A0197C686189884205D9284603E42846DA
:1054E00007E4284605E438686B460222017E2078EE
:1054F000FCF723FD08B12846BCE73868F2B2434602
:10550000417D78680078FCF75AFD08B12846B1E77C
:105510000020AFE72DE9FF4F85B005460E46174640
:10552000DFF8B4814FF0FF3998F82500002803D048
:10553000484609B0BDE8F08F0EB1002425E048468A
:10554000F7E7281B102800DD10201FFA80FA301919
:105550008346024651462046FFF774FF08B148468D
:10556000E7E701AA51462046FFF7A0FF08B14846E9
:10557000DFE75846524601A901F00AF810B16FF072
:105580000100D6E704EB0A0084B2AC42D9D3380A52
:105590008DF800008DF80170D8F800006B460222EB
:1055A000817ED8F804000078FCF7C7FC08B14846B3
:1055B000BFE7012088F825000898A8F826000020F9
:1055C000B7E7454991F824100170002070474FF06B
:1055D000FF3070474FF0FF3070472DE9F84F8B4692
:1055E00015463D4C4FF0FF3A04F116074FF0000905
:1055F0004FF00108002D71D0B0F5FF5F01D9FF26F3
:1056000005E0202801D2012601E0C0F34716BBF1D6
:10561000000F01D14FF0010B282D01D950460EE4A7
:10562000607DF8B994F8240028B10020FFF755FEFA
:1056300084F8208001E084F820903846FFF73EF996
:1056400025481830FFF757F923481A30FFF772F949
:1056500021481C30FFF78EF9A07AA0771E481F3032
:10566000FFF7F7F90020FEF771FB0020FEF70DFEB3
:105670008DF8009020686B46012281786068007880
:10568000FCF75BFC08B150462DE440208DF800008B
:1056900020686B460122C17B60680078FCF74DFCF6
:1056A00078BB8DF800608DF801B020686B4602224F
:1056B000017A60680078FCF740FC10BB0520FCF71D
:1056C00023FB607A072606EBC0008DF800002068F7
:1056D000C1796068007802E0740100202EE06B461A
:1056E0000122FCF72AFC60B920208DF80000012D72
:1056F00004D0052D06D88DF801800CE08DF80190BE
:1057000009E01EE0142D03D802208DF8010002E00C
:1057100003208DF801009DF8010006EB80108DF844
:10572000010020686B460222817C60680078FCF7EB
:1057300004FC30B984F81580002070E70021785C03
:1057400030B3FF2020726072E0724FF6FF71E1818A
:10575000A072207484F80C80A07FFEF796FBE08A8C
:10576000FEF772FE207EFEF737FE608BFEF751FDDE
:10577000A08BFEF7F1FDE07FFEF71DFD94F8200001
:1057800010B10120FFF7A9FD84F81590002046E72D
:10579000491C0C29D3D3504641E70000C8234FF4DD
:1057A0008062F84940F6F630FFF7B4BE30B587B0F6
:1057B0000446F5A000680490F4A000680390F4A0EB
:1057C00000680290F3A00068019004F0030004ABAD
:1057D000195C8DF81810C4F3C102995C8DF819108A
:1057E000C4F381115B5C8DF81A3003AB185C8DF843
:1057F0001400985C8DF81500585C8DF8160006AA08
:10580000032140F22640FFF71DFE4FF0FF3510B197
:10581000284607B030BD05AA032140F22A40FFF711
:1058200011FE08B12846F4E7029806900198059009
:1058300060070BD59DF8180040F001008DF81800A6
:105840009DF8140040F001008DF81400A0060BD55F
:105850009DF8190040F001008DF819009DF8150021
:1058600040F001008DF81500E0050BD59DF81A00F9
:1058700040F001008DF81A009DF8160040F001007C
:105880008DF8160006AA03214FF48860FFF7DAFDB1
:1058900008B12846BDE705AA032140F23140FFF7D1
:1058A000D1FD08B12846B4E7BB4804810020B0E729
:1058B0001FB5B949098901F0030250F8222001926D
:1058C0004A0702D5019A52420192C1F3C10250F82F
:1058D000222002928A0602D5029A52420292C1F313
:1058E000811250F822000390C80502D50398404267
:1058F0000390AA48019981FB00218B0043EA927131
:105900000191029981FB00218B0043EA927102917F
:10591000039981FB0001800F40EA81000390019808
:10592000000E8DF800000198000C8DF80100019820
:10593000000A8DF8020001988DF803006A460421E0
:105940004FF47470FFF77EFD4FF0FF3410B1204626
:1059500004B010BD0298000E8DF800000298000CF3
:105960008DF801000298000A8DF8020002988DF867
:1059700003006A4604214FF47570FFF763FD08B118
:105980002046E5E70398000E8DF800000398000C10
:105990008DF801000398000A8DF8020003988DF835
:1059A00003006A4604214FF47670FFF74BFDCFE702
:1059B00030B587B004466846FFF728F8BDF8000008
:1059C000420CC1037448038903F0030054F820001B
:1059D0000490580702D5049840420490C3F3C100D4
:1059E00054F820000590980602D50598404205908D
:1059F000C3F3811054F820000690D80502D506980C
:105A0000404206900498A0FB0145C31703FB0153D5
:105A100000FB0230830043EA947004900598A0FBD9
:105A20000145C31703FB015300FB0230830043EA27
:105A3000947005900698A0FB0145C31703FB015124
:105A400000FB0210810041EA947006900498000E59
:105A50008DF804000498000C8DF805000498000AE5
:105A60008DF8060004988DF807000598000E8DF853
:105A700008000598000C8DF809000598000A8DF8BB
:105A80000A0005988DF80B000698000E8DF80C00A2
:105A90000698000C8DF80D000698000A8DF80E008F
:105AA00006988DF80F0001AA0C214FF42570FFF71E
:105AB000C9FCAEE630B585B0044639A1D1E9000293
:105AC0008968CDE9032102904FF0FF35C82C02D937
:105AD000284605B030BDC820B0FBF4F1491E080AC5
